:020000040000FA
:100000000C945D000C9485000C9485000C94850084
:100010000C9485000C9485000C9485000C9485004C
:100020000C9485000C9485000C9485000C9485003C
:100030000C9485000C9485000C9485000C9485002C
:100040000C9464040C9485000C9432040C940C04FD
:100050000C9485000C9485000C9485000C9485000C
:100060000C9485000C94850000000008000201003B
:100070000003040700000000000000000000000072
:10008000250028002B0000000000240027002A0083
:10009000040404040404040402020202020203032E
:1000A0000303030301020408102040800102040836
:1000B0001020010204081020AE0411241FBECFEF4F
:1000C000D8E0DEBFCDBF11E0A0E0B1E0EAE6FCE0A1
:1000D00002C005900D92A231B107D9F721E0A2E14B
:1000E000B1E001C01D92A23DB207E1F710E0CDE5FD
:1000F000D0E004C02197FE010E94F705CC35D1075E
:10010000C9F70E940F050C9433060C94000090E090
:10011000FC01EC55FF4F249180579F4FFC018491C7
:10012000882399F090E0880F991FFC01EA57FF4F50
:10013000A591B491FC01E458FF4F859194918FB73C
:10014000F894EC91E22BEC938FBF0895AF92BF929D
:10015000CF92DF92EF92FF920F931F93CF93DF9393
:100160006C017B018B01040F151FEB015E01AE18C2
:10017000BF08C017D10759F06991D601ED91FC91E4
:100180000190F081E02DC6010995892B79F7C50111
:10019000DF91CF911F910F91FF90EF90DF90CF9063
:1001A000BF90AF900895FC01538D448D252F30E012
:1001B000842F90E0821B930B541710F0CF96089574
:1001C00001970895FC01918D828D981761F0A28DA1
:1001D000AE0FBF2FB11D5D968C91928D9F5F9F7367
:1001E000928F90E008958FEF9FEF0895FC01918D1D
:1001F000828D981731F0828DE80FF11D858D90E08A
:1002000008958FEF9FEF0895FC01918D228D892F26
:1002100090E0805C9F4F821B91098F73992708950E
:100220008BE191E00E94040121E0892B09F420E098
:10023000822F089580E090E0892B29F00E94100120
:1002400081110C9400000895FC01A48DA80FB92F12
:10025000B11DA35ABF4F2C91848D90E001968F73EE
:100260009927848FA689B7892C93A089B1898C910D
:10027000837080648C93938D848D981306C002885C
:10028000F389E02D80818F7D80830895EF92FF9226
:100290000F931F93CF93DF93EC0181E0888F9B8DA9
:1002A0008C8D98131AC0E889F989808185FF15C063
:1002B0009FB7F894EE89FF896083E889F989808186
:1002C0008370806480839FBF81E090E0DF91CF9155
:1002D0001F910F91FF90EF900895F62E0B8D10E077
:1002E0000F5F1F4F0F731127E02E8C8D8E110CC0E6
:1002F0000FB607FCFACFE889F989808185FFF5CF31
:10030000CE010E942401F1CFEB8DEC0FFD2FF11DEA
:10031000E35AFF4FF0829FB7F8940B8FEA89FB896D
:1003200080818062CFCFCF93DF93EC01888D8823CB
:10033000B9F0AA89BB89E889F9898C9185FD03C048
:10034000808186FD0DC00FB607FCF7CF8C9185FF2D
:10035000F2CF808185FFEDCFCE010E942401E9CF4D
:10036000DF91CF91089590E0FC01E859FF4F24916F
:10037000FC01EC55FF4F3491FC01E057FF4FE49135
:10038000EE23C9F0222339F0233001F1A8F4213003
:1003900019F1223029F1F0E0EE0FFF1FE458FF4F72
:1003A000A591B4918FB7F894EC91611126C0309566
:1003B0003E233C938FBF08952730A9F02830C9F021
:1003C000243049F7809180008F7D03C080918000A8
:1003D0008F7780938000DFCF84B58F7784BDDBCFAC
:1003E00084B58F7DFBCF8091B0008F778093B00074
:1003F000D2CF8091B0008F7DF9CF3E2BDACFCF9353
:10040000DF93EC018091C0019091C101029749F402
:10041000C130D10509F43BC06CF560E0209709F4C8
:1004200037C08091C0019091C101049749F4C13057
:10043000D10509F45CC00CF037C0209709F442C024
:100440008091C0019091C101059709F0E5C0CA30C3
:10045000D10508F0E1C0FE01E05DFD4F0C94F70509
:100460008F029B02AC02C202DD02DF02E602F20250
:1004700003030A03C230D105A9F060E0C330D105FF
:1004800081F68091C4010E94B30160E006C061E082
:100490008091C4010E94B30161E08091C6010E9475
:1004A000B301BFCF61E0EDCFC230D10539F1C33028
:1004B000D10509F0C5CF61E08091C4010E94B3016C
:1004C00060E022C061E08091C4010E94B30160E05D
:1004D0008091C6010E94B30161E08091C8010E9431
:1004E000B30160E08091CA010E94B301A9CF60E02E
:1004F0008091C4010E94B30161E0EACF60E0809185
:10050000C4010E94B30161E08091C6010E94B30161
:1005100060E08091C8010E94B30161E0E3CF60E038
:100520008091C4010E94B30161E08091C6010E94E4
:10053000B30161E00BC060E08091C4010E94B3018F
:1005400061E08091C6010E94B30160E08091C80122
:100550000E94B30160E010C060E08091C4010E947D
:10056000B30161E08091C6010E94B30160E0809117
:10057000C8010E94B30161E08091CA010E94B301E9
:1005800061E015C060E08091C4010E94B30161E0A8
:100590008091C6010E94B30160E08091C8010E9471
:1005A000B30161E08091CA010E94B30160E08091D3
:1005B000CC01DF91CF910C94B30161E0E4CF61E015
:1005C0008091C4010E94B30160E0E2CF61E08091BC
:1005D000C4010E94B30160E08091C6010E94B30192
:1005E00061E0DBCF61E08091C4010E94B30160E073
:1005F0008091C6010E94B30161E08091C8010E9410
:10060000B30160E0CFCF61E08091C4010E94B301EB
:1006100060E08BCF60E0F8CFDF91CF9108953FB7D6
:10062000F8948091170190911801A0911901B0914F
:100630001A0126B5A89B05C02F3F19F00196A11DF0
:10064000B11D3FBFBA2FA92F982F8827BC01CD011C
:10065000620F711D811D911D42E0660F771F881F7B
:10066000991F4A95D1F708954F925F926F927F92AA
:100670008F929F92AF92BF92EF92FF920F931F9330
:10068000CF93DF93EC0197FF04C0CC27DD27C81B75
:10069000D90B181619060CF061C081E090E0909318
:1006A000B9018093B80104E010E08AE0E82EF12C53
:1006B000209709F46FC00E940F038090CE019090A4
:1006C000CF01A090D001B090D1012B013C0148187E
:1006D00059086A087B088090BA019090BB01A090ED
:1006E000BC01B090BD01481459046A047B0400F3B6
:1006F0006093CE017093CF018093D0019093D1018C
:100700008091C2019091C3012091B8013091B9014B
:100710002130310559F501969093C3018093C201B0
:100720002091BE013091BF018217930721F41092EE
:10073000C3011092C20121978091C2019091C3011F
:100740002091C0013091C101B7012530310509F078
:10075000B8010E94C4050E94FF01AACF892B09F4A9
:10076000A2CF1092B9011092B8019DCF892B41F40C
:100770008091BE019091BF019093C3018093C2010B
:100780008091C2019091C30101979093C30180931E
:10079000C201D1CFDF91CF911F910F91FF90EF90C8
:1007A000BF90AF909F908F907F906F905F904F9091
:1007B00008958F929F92AF92BF92CF92DF92EF9265
:1007C000FF926B017C010E940F034B015C01C1147D
:1007D000D104E104F104B9F00E940F03681979090A
:1007E0008A099B09683E73408105910580F321E0E9
:1007F000C21AD108E108F10888EE880E83E0981E3D
:10080000A11CB11CE4CFFF90EF90DF90CF90BF9080
:10081000AF909F908F9008951F920F920FB60F92F6
:1008200011242F933F934F935F936F937F938F93F5
:100830009F93AF93BF93EF93FF938BE191E00E945F
:100840002401FF91EF91BF91AF919F918F917F9183
:100850006F915F914F913F912F910F900FBE0F902D
:100860001F9018951F920F920FB60F9211242F937D
:100870008F939F93EF93FF93E0912B01F0912C01C5
:100880008081E0913101F091320182FD1BC09081A5
:10089000809134018F5F8F7320913501821741F071
:1008A000E0913401F0E0E55EFE4F958F80933401D6
:1008B000FF91EF919F918F912F910F900FBE0F900D
:1008C0001F9018958081F4CF1F920F920FB60F9250
:1008D00011242F933F938F939F93AF93BF93809156
:1008E000130190911401A0911501B091160130915E
:1008F000120123E0230F2D3758F50196A11DB11DDC
:10090000209312018093130190931401A093150179
:10091000B09316018091170190911801A0911901CF
:10092000B0911A010196A11DB11D809317019093FA
:100930001801A0931901B0931A01BF91AF919F9133
:100940008F913F912F910F900FBE0F901F90189590
:1009500026E8230F0296A11DB11DD2CFCF93DF93BE
:10096000EBE1F1E01382128288EE93E0A0E0B0E0C8
:1009700084839583A683B78384E091E09183808309
:1009800085EC90E09587848784EC90E09787868754
:1009900080EC90E0918B808B81EC90E0938B828B4C
:1009A00082EC90E0958B848B86EC90E0978B868B25
:1009B000118E128E138E148EC8EBD1E01B861A8610
:1009C000198218821E8A1F8A188E198E81E090E083
:1009D0009F838E8388E090E09D878C8789E090E0FC
:1009E0009F878E878AE090E0998B888B8BE090E0E0
:1009F0009B8B8A8B88E00E9487008E850E948700EF
:100A000088890E9487008A890E9487001D8A1C8A23
:100A100084E090E099878887DF91CF91089578945A
:100A200084B5826084BD84B5816084BD85B58260F3
:100A300085BD85B5816085BD80916E0081608093A4
:100A40006E0010928100809181008260809381000D
:100A5000809181008160809381008091800081601D
:100A6000809380008091B10084608093B100809178
:100A7000B00081608093B00080917A0084608093A0
:100A80007A0080917A00826080937A0080917A0067
:100A9000816080937A0080917A00806880937A00E8
:100AA0001092C100E0912B01F0912C0182E0808333
:100AB000E0912701F09128011082E0912901F09145
:100AC0002A018FEC808310923301E0912F01F09185
:100AD000300186E08083E0912D01F0912E0180812C
:100AE00080618083E0912D01F0912E0180818860EA
:100AF0008083E0912D01F0912E01808180688083B8
:100B0000E0912D01F0912E0180818F7D80832091D5
:100B1000BE013091BF01032E000C440B550B60E069
:100B200077E883E993E00E94D805CA01B90122E37E
:100B300030E040E050E00E94D8052093BA013093A5
:100B4000BB014093BC015093BD01C0E0D0E081E007
:100B500090E00E94340366E970E080E090E00E943B
:100B6000D9038FEF9FEF0E94340366E970E080E0C5
:100B700090E00E94D903209751F30E94100188232E
:100B800031F30E940000E3CF97FB072E16F4009488
:100B900007D077FD09D00E94FD0507FC05D03EF483
:100BA000909581959F4F0895709561957F4F089519
:100BB000052E97FB1EF400940E94EF0557FD07D009
:100BC0000E94110607FC03D04EF40C94EF055095DB
:100BD0004095309521953F4F4F4F5F4F0895909529
:100BE0008095709561957F4F8F4F9F4F0895EE0FC1
:100BF000FF1F0590F491E02D0994AA1BBB1B51E146
:100C000007C0AA1FBB1FA617B70710F0A61BB70B7C
:100C1000881F991F5A95A9F780959095BC01CD0121
:100C20000895A1E21A2EAA1BBB1BFD010DC0AA1F2D
:100C3000BB1FEE1FFF1FA217B307E407F50720F045
:100C4000A21BB30BE40BF50B661F771F881F991FC0
:100C50001A9469F760957095809590959B01AC0109
:100C6000BD01CF010895F894FFCF000000004601B8
:0C0C7000A600D30093010401E200F6008E
:107E0000112484B714BE81FFF0D085E080938100F7
:107E100082E08093C00088E18093C10086E0809377
:107E2000C20080E18093C4008EE0C9D0259A86E02C
:107E300020E33CEF91E0309385002093840096BBD3
:107E4000B09BFECF1D9AA8958150A9F7CC24DD24C4
:107E500088248394B5E0AB2EA1E19A2EF3E0BF2EE7
:107E6000A2D0813461F49FD0082FAFD0023811F036
:107E7000013811F484E001C083E08DD089C08234E0
:107E800011F484E103C0853419F485E0A6D080C0E4
:107E9000853579F488D0E82EFF2485D0082F10E0AE
:107EA000102F00270E291F29000F111F8ED06801E7
:107EB0006FC0863521F484E090D080E0DECF843638
:107EC00009F040C070D06FD0082F6DD080E0C81688
:107ED00080E7D80618F4F601B7BEE895C0E0D1E017
:107EE00062D089930C17E1F7F0E0CF16F0E7DF06D8
:107EF00018F0F601B7BEE89568D007B600FCFDCFD4
:107F0000A601A0E0B1E02C9130E011968C91119780
:107F100090E0982F8827822B932B1296FA010C0160
:107F200087BEE89511244E5F5F4FF1E0A038BF0790
:107F300051F7F601A7BEE89507B600FCFDCF97BE46
:107F4000E89526C08437B1F42ED02DD0F82E2BD052
:107F50003CD0F601EF2C8F010F5F1F4F84911BD097
:107F6000EA94F801C1F70894C11CD11CFA94CF0C13
:107F7000D11C0EC0853739F428D08EE10CD085E9AC
:107F80000AD08FE07ACF813511F488E018D01DD067
:107F900080E101D065CF982F8091C00085FFFCCF94
:107FA0009093C60008958091C00087FFFCCF809118
:107FB000C00084FD01C0A8958091C6000895E0E648
:107FC000F0E098E1908380830895EDDF803219F02E
:107FD00088E0F5DFFFCF84E1DECF1F93182FE3DFCA
:107FE0001150E9F7F2DF1F91089580E0E8DFEE27F6
:047FF000FF270994CA
:027FFE00040479
:00000001FF
