:020000040000FA
:100000000C945E000C9486000C9486000C94860080
:100010000C9486000C9486000C9486000C94860048
:100020000C9486000C9486000C9486000C94860038
:100030000C9486000C9486000C9486000C94860028
:100040000C9459020C9486000C94C9020C94A302DF
:100050000C9486000C9486000C9486000C94860008
:100060000C9486000C948600000000080002010039
:100070000003040700000000000000000000000072
:10008000250028002B0000000000240027002A0083
:10009000040404040404040402020202020203032E
:1000A0000303030301020408102040800102040836
:1000B00010200102040810203A039B0411241FBEE3
:1000C000CFEFD8E0DEBFCDBF22E0A4E6B1E001C0B3
:1000D0001D92AC31B207E1F711E0A0E0B1E0E4E03D
:1000E000FEE002C005900D92A436B107D9F710E0EA
:1000F000CDE5D0E004C02197FE010E94FD04CC357F
:10010000D107C9F70E9484030C94F5060C940000F3
:1001100090E0FC01EC55FF4F249180579F4FFC016C
:100120008491882399F090E0880F991FFC01EA5789
:10013000FF4FA591B491FC01E458FF4F8591949134
:100140008FB7F894EC91E22BEC938FBF0895AF92A8
:10015000BF92CF92DF92EF92FF920F931F93CF93B4
:10016000DF936C017B018B01040F151FEB015E0116
:10017000AE18BF08C017D10759F06991D601ED91AB
:10018000FC910190F081E02DC6010995892B79F74A
:10019000C501DF91CF911F910F91FF90EF90DF90FC
:1001A000CF90BF90AF900895CF93DF93FC0144812F
:1001B0005581608171818FE691E00E94A700EC017A
:1001C00042E050E068E171E08FE691E00E94A70014
:1001D0008C0F9D1FDF91CF910895FC01538D448DAD
:1001E000252F30E0842F90E0821B930B541710F0E2
:1001F000CF96089501970895FC01918D828D9817EF
:1002000061F0A28DAE0FBF2FB11D5D968C91928DC6
:100210009F5F9F73928F90E008958FEF9FEF0895F7
:10022000FC01918D828D981731F0828DE80FF11DC0
:10023000858D90E008958FEF9FEF08952FB7F89484
:1002400080916B0190916C01A0916D01B0916E0154
:100250002FBF8093770190937801A0937901B09399
:100260007A018FE691E00E94100197FF26C02FB718
:10027000F89480916B0190916C01A0916D01B09107
:100280006E012FBF40917701509178016091790103
:1002900070917A01841B950BA60BB70B40917301EB
:1002A00050917401609175017091760184179507E2
:1002B000A607B707B0F28FEF9FEF0895FC01918D6D
:1002C000228D892F90E0805C9F4F821B91098F7354
:1002D000992708958FE691E00E945E0121E0892B25
:1002E00009F420E0822F089580E090E0892B29F026
:1002F0000E946A0181110C9400000895FC01A48DF4
:10030000A80FB92FB11DA35ABF4F2C91848D90E037
:1003100001968F739927848FA689B7892C93A0891A
:10032000B1898C91837080648C93938D848D9813A4
:1003300006C00288F389E02D80818F7D8083089537
:10034000EF92FF920F931F93CF93DF93EC0181E025
:10035000888F9B8D8C8D98131AC0E889F9898081CC
:1003600085FF15C09FB7F894EE89FF896083E889FF
:10037000F98980818370806480839FBF81E090E0F1
:10038000DF91CF911F910F91FF90EF900895F62E7E
:100390000B8D10E00F5F1F4F0F731127E02E8C8D18
:1003A0008E110CC00FB607FCFACFE889F98980815D
:1003B00085FFF5CFCE010E947E01F1CFEB8DEC0FD2
:1003C000FD2FF11DE35AFF4FF0829FB7F8940B8F7A
:1003D000EA89FB8980818062CFCFCF93DF93EC01E4
:1003E000888D8823B9F0AA89BB89E889F9898C911D
:1003F00085FD03C0808186FD0DC00FB607FCF7CFD9
:100400008C9185FFF2CF808185FFEDCFCE010E94D8
:100410007E01E9CFDF91CF91089590E0FC01E8598A
:10042000FF4F2491FC01EC55FF4F3491FC01E05744
:10043000FF4FE491EE23C9F0222339F0233001F17C
:10044000A8F4213019F1223029F1F0E0EE0FFF1F5E
:10045000E458FF4FA591B4918FB7F894EC916111D6
:1004600026C030953E233C938FBF08952730A9F0D6
:100470002830C9F0243049F7809180008F7D03C077
:10048000809180008F7780938000DFCF84B58F7755
:1004900084BDDBCF84B58F7DFBCF8091B0008F779B
:1004A0008093B000D2CF8091B0008F7DF9CF3E2BEA
:1004B000DACF1F920F920FB60F9211242F933F9312
:1004C0008F939F93AF93BF9380916B0190916C0139
:1004D000A0916D01B0916E0130916A0123E0230F6C
:1004E0002D3758F50196A11DB11D20936A01809307
:1004F0006B0190936C01A0936D01B0936E0180919C
:10050000660190916701A0916801B091690101961F
:10051000A11DB11D8093660190936701A0936801AE
:10052000B0936901BF91AF919F918F913F912F91AE
:100530000F900FBE0F901F90189526E8230F02967C
:10054000A11DB11DD2CF1F920F920FB60F92112491
:100550002F933F934F935F936F937F938F939F93CB
:10056000AF93BF93EF93FF938FE691E00E947E01DC
:10057000FF91EF91BF91AF919F918F917F916F917B
:100580005F914F913F912F910F900FBE0F901F9051
:1005900018951F920F920FB60F9211242F938F93DD
:1005A0009F93EF93FF93E0917F01F0918001808111
:1005B000E0918501F091860182FD1BC090818091C0
:1005C00088018F5F8F7320918901821741F0E0913C
:1005D0008801F0E0E159FE4F958F80938801FF91EB
:1005E000EF919F918F912F910F900FBE0F901F90C1
:1005F00018958081F4CFEF92FF920F931F93CF93C2
:10060000DF93EC017B018A0188819981009729F0B1
:100610002A813B812417350788F4B8016F5F7F4F2B
:100620000E942806009791F0998388831B830A8390
:100630002C813D81232B11F4FC0110821D830C833E
:10064000B701888199810E94EE060CC0888199814A
:10065000009711F00E949F05198218821D821C824A
:100660001B821A82CE01DF91CF911F910F91FF90D3
:10067000EF900895EFE6F1E01382128288EE93E0A6
:10068000A0E0B0E084839583A683B7838AE091E0FD
:100690009183808385EC90E09587848784EC90E05B
:1006A0009787868780EC90E0918B808B81EC90E03F
:1006B000938B828B82EC90E0958B848B86EC90E020
:1006C000978B868B118E128E138E148EE2E1F2E0E0
:1006D00011821082138212821582148248E250E045
:1006E0006BE171E0CF010E94FB02ECE0F2E01182CD
:1006F000108213821282158214824FE150E064E46A
:1007000071E0CF010C94FB02789484B5826084BDC3
:1007100084B5816084BD85B5826085BD85B5816005
:1007200085BD80916E00816080936E001092810083
:10073000809181008260809381008091810081603E
:1007400080938100809180008160809380008091FF
:10075000B10084608093B1008091B000816080938B
:10076000B00080917A00846080937A0080917A0052
:10077000826080937A0080917A00816080937A0011
:1007800080917A00806880937A001092C10089E09D
:100790000E9488008AE00E9488008BE00E94880006
:1007A000E0917F01F091800182E08083E0917B0104
:1007B000F0917C011082E0917D01F0917E018FEC3F
:1007C000808310928701E0918301F091840186E09B
:1007D0008083E0918101F09182018081806180833A
:1007E000E0918101F0918201808188608083E091B5
:1007F0008101F0918201808180688083E091810194
:10080000F091820180818F7D8083C0E0D0E082E121
:1008100092E00E94D4008CE092E00E94D4008FE627
:1008200091E00E945E01892BD1F30E941E01FC0120
:1008300097FD66C08D32910521F0C0970A9708F0A8
:1008400058C0C12CD12C760110E0E130F105D9F06F
:10085000ED32F10509F452C0CF01C0970A9798F420
:10086000AAE0B0E0A70196010E94AC046F01FF0F5F
:10087000EE08FF08C60ED71EE81EF91E80E3C81A50
:10088000D108E108F1088FE691E00E94FC000E9487
:100890001E01FC01C0970A97C0F2E130F105A9F2F0
:1008A000112341F0F094E094D094C094C11CD11C69
:1008B000E11CF11CC601D0926501C0926401813037
:1008C000910511F561E089E00E940D0260E08AE087
:1008D0000E940D0260E08BE00E940D02209709F457
:1008E00096CF0E946A01882309F491CF0E940000EC
:1008F0008ECF8FE691E00E94FC0097CF11E0C3CF2E
:10090000C12CD12C7601D6CF8230910539F461E02B
:100910008AE00E940D0260E089E0DACF0397F1F6E9
:1009200061E08BE00E940D0260E089E00E940D0210
:1009300060E08AE0D1CF80910C0290910D02009787
:1009400011F00E949F05809112029091130200976E
:1009500011F00C949F0508950E94EE04A59F900D40
:10096000B49F900DA49F800D911D112408952F9286
:100970003F924F925F926F927F928F929F92AF922F
:10098000BF92CF92DF92EF92FF920F931F93CF937C
:10099000DF93CDB7DEB7CA1BDB0B0FB6F894DEBF13
:1009A0000FBECDBF09942A88398848885F846E8439
:1009B0007D848C849B84AA84B984C884DF80EE8083
:1009C000FD800C811B81AA81B981CE0FD11D0FB68C
:1009D000F894DEBF0FBECDBFED010895A29FB00118
:1009E000B39FC001A39F700D811D1124911DB29F63
:1009F000700D811D1124911D0895EE0FFF1F0590AC
:100A0000F491E02D09940F931F93CF93DF938230DD
:100A1000910510F482E090E0E0911A02F0911B023F
:100A200030E020E0B0E0A0E0309799F421153105E6
:100A300009F44AC0281B390B24303105D8F58A81C6
:100A40009B816115710589F1FB0193838283FE010E
:100A500011C0408151810281138148175907E0F08C
:100A60004817590799F4109761F012960C93129752
:100A700013961C933296CF01DF91CF911F910F9166
:100A8000089500931A0210931B02F4CF211531052B
:100A900051F04217530738F0A901DB019A01BD015B
:100AA000DF01F801C1CFEF01F9CF90931B028093D2
:100AB0001A02CDCFFE01E20FF31F819391932250D2
:100AC000310939832883D7CF209118023091190238
:100AD000232B41F42091020130910301309319023C
:100AE0002093180220910001309101012115310558
:100AF00041F42DB73EB74091040150910501241BEC
:100B0000350BE0911802F0911902E217F307A0F4F7
:100B10002E1B3F0B2817390778F0AC014E5F5F4F53
:100B20002417350748F04E0F5F1F5093190240936A
:100B30001802819391939FCFF0E0E0E09CCFCF9398
:100B4000DF930097E9F0FC01329713821282A091A3
:100B50001A02B0911B02ED0130E020E01097A1F4E1
:100B600020813181820F931F209118023091190248
:100B70002817390709F061C0F0931902E0931802B1
:100B8000DF91CF910895EA01CE17DF07E8F54A819A
:100B90005B819E0141155105B1F7E901FB83EA83B1
:100BA00049915991C40FD51FEC17FD0761F480815D
:100BB00091810296840F951FE90199838883828130
:100BC00093819B838A83F0E0E0E012968D919C9163
:100BD00013970097B9F52D913C911197CD0102968D
:100BE000820F931F2091180230911902281739079C
:100BF00039F6309751F510921B0210921A02B093F9
:100C00001902A0931802BCCFD383C28340815181C3
:100C1000840F951FC817D90761F44E5F5F4F888115
:100C20009981480F591F518340838A819B81938307
:100C300082832115310509F0B0CFF0931B02E093B8
:100C40001A029ECFFD01DC01C0CF13821282D7CFE2
:100C5000B0E0A0E0EEE2F6E00C94B9048C0100975D
:100C600051F4CB010E9403058C01C801CDB7DEB75A
:100C7000E0E10C94D504FC01E60FF71F9C01225023
:100C80003109E217F30708F49DC0D901CD91DC9139
:100C90001197C617D70798F0C530D10530F3CE01AC
:100CA00004978617970708F3C61BD70B2297C193A3
:100CB000D1936D937C93CF010E949F05D6CF5B01AA
:100CC000AC1ABD0A4C018C0E9D1EA0911A02B09167
:100CD0001B02512C412CF12CE12C109731F5809105
:100CE0001802909119028815990509F05CC0461602
:100CF000570608F058C080910001909101010097BB
:100D000041F48DB79EB74091040150910501841BB9
:100D1000950BE817F90708F055C0F0931902E09316
:100D20001802F90171836083A0CF8D919C91119776
:100D300012966C90129713967C901397A815B9058C
:100D400059F56C0142E0C40ED11CCA14DB0420F139
:100D5000AC014A195B09DA011296159780F062829C
:100D6000738251834083D9016D937C93E114F10424
:100D700071F0D7011396FC93EE93129776CF2296DB
:100D80008C0F9D1FF90191838083F301EFCFF093C6
:100D90001B02E0931A0269CF4816590608F42C0189
:100DA0007D01D3019ACFCB010E9403057C010097FE
:100DB00049F0AE01B8010E94E506C8010E949F05F6
:100DC000870153CF10E000E050CFFB01DC0102C0EF
:100DD00001900D9241505040D8F70895FB01DC017D
:100DE00001900D920020E1F7089510E0CDE5D0E0EC
:100DF00004C0FE010E94FD042196CE35D107C9F73B
:100E0000F894FFCF00001C02800000000000A00149
:100E1000A700ED00ED015E01FC0010010D0A005776
:100E200068617420436F6C6F7572204C4544204498
:100E30006F20596F752057616E7420546F204C6974
:100E40006768742055703F003120697320726564B3
:100E50002C203220697320677265656E2C20332048
:080E6000697320626C756500E6
:107E0000112484B714BE81FFF0D085E080938100F7
:107E100082E08093C00088E18093C10086E0809377
:107E2000C20080E18093C4008EE0C9D0259A86E02C
:107E300020E33CEF91E0309385002093840096BBD3
:107E4000B09BFECF1D9AA8958150A9F7CC24DD24C4
:107E500088248394B5E0AB2EA1E19A2EF3E0BF2EE7
:107E6000A2D0813461F49FD0082FAFD0023811F036
:107E7000013811F484E001C083E08DD089C08234E0
:107E800011F484E103C0853419F485E0A6D080C0E4
:107E9000853579F488D0E82EFF2485D0082F10E0AE
:107EA000102F00270E291F29000F111F8ED06801E7
:107EB0006FC0863521F484E090D080E0DECF843638
:107EC00009F040C070D06FD0082F6DD080E0C81688
:107ED00080E7D80618F4F601B7BEE895C0E0D1E017
:107EE00062D089930C17E1F7F0E0CF16F0E7DF06D8
:107EF00018F0F601B7BEE89568D007B600FCFDCFD4
:107F0000A601A0E0B1E02C9130E011968C91119780
:107F100090E0982F8827822B932B1296FA010C0160
:107F200087BEE89511244E5F5F4FF1E0A038BF0790
:107F300051F7F601A7BEE89507B600FCFDCF97BE46
:107F4000E89526C08437B1F42ED02DD0F82E2BD052
:107F50003CD0F601EF2C8F010F5F1F4F84911BD097
:107F6000EA94F801C1F70894C11CD11CFA94CF0C13
:107F7000D11C0EC0853739F428D08EE10CD085E9AC
:107F80000AD08FE07ACF813511F488E018D01DD067
:107F900080E101D065CF982F8091C00085FFFCCF94
:107FA0009093C60008958091C00087FFFCCF809118
:107FB000C00084FD01C0A8958091C6000895E0E648
:107FC000F0E098E1908380830895EDDF803219F02E
:107FD00088E0F5DFFFCF84E1DECF1F93182FE3DFCA
:107FE0001150E9F7F2DF1F91089580E0E8DFEE27F6
:047FF000FF270994CA
:027FFE00040479
:00000001FF
