:100000000C9462000C948A000C948A000C948A0070
:100010000C948A000C948A000C948A000C948A0038
:100020000C948A000C948A000C948A000C948A0028
:100030000C948A000C948A000C948A000C948A0018
:100040000C94EE020C948A000C94BC020C94960260
:100050000C948A000C948A000C948A000C948A00F8
:100060000C948A000C948A000000000025002800EF
:100070002B0000000000240027002A0000000000E0
:1000800023002600290004040404040404040202DA
:100090000202020203030303030301020408102007
:1000A0004080010204081020010204081020000012
:1000B0000008000201000003040700000000000027
:1000C00000006B0411241FBECFEFD8E0DEBFCDBF10
:1000D00011E0A0E0B1E0E4E8F9E002C005900D9283
:1000E000A831B107D9F721E0A8E1B1E001C01D9224
:1000F000A23CB207E1F710E0C2E6D0E004C02197CD
:10010000FE010E94BA04C136D107C9F70E94380324
:100110000C94C0040C940000AF92BF92CF92DF9277
:10012000EF92FF920F931F93CF93DF936C017B01AC
:100130008B01040F151FEB015E01AE18BF08C0173D
:10014000D10759F06991D601ED91FC910190F081B0
:10015000E02DC6010995892B79F7C501DF91CF9173
:100160001F910F91FF90EF90DF90CF90BF90AF90D5
:100170000895FC01538D448D252F30E0842F90E0AD
:10018000821B930B541710F0CF9608950197089592
:10019000FC01918D828D981761F0A28DAE0FBF2F5B
:1001A000B11D5D968C91928D9F5F9F73928F90E0B1
:1001B00008958FEF9FEF0895FC01918D828D981720
:1001C00031F0828DE80FF11D858D90E008958FEF5D
:1001D0009FEF0895FC01918D228D892F90E0805C26
:1001E0009F4F821B91098F739927089585E291E0B3
:1001F0000E94EA0021E0892B09F420E0822F089573
:1002000080E090E0892B29F00E94F60081110C9487
:1002100000000895FC01A48DA80FB92FB11DA35AA9
:10022000BF4F2C91848D90E001968F739927848F16
:10023000A689B7892C93A089B1898C918370806439
:100240008C93938D848D981306C00288F389E02DDA
:1002500080818F7D80830895EF92FF920F931F938B
:10026000CF93DF93EC0181E0888F9B8D8C8D981369
:100270001AC0E889F989808185FF15C09FB7F89475
:10028000EE89FF896083E889F989808183708064C1
:1002900080839FBF81E090E0DF91CF911F910F910C
:1002A000FF90EF900895F62E0B8D10E00F5F1F4F1B
:1002B0000F731127E02E8C8D8E110CC00FB607FC2A
:1002C000FACFE889F989808185FFF5CFCE010E94B8
:1002D0000A01F1CFEB8DEC0FFD2FF11DE35AFF4F1B
:1002E000F0829FB7F8940B8FEA89FB898081806246
:1002F000CFCFCF93DF93EC01888D8823B9F0AA8903
:10030000BB89E889F9898C9185FD03C0808186FDD0
:100310000DC00FB607FCF7CF8C9185FFF2CF80811F
:1003200085FFEDCFCE010E940A01E9CFDF91CF9189
:100330000895833081F028F4813099F08230A9F05B
:1003400008958730A9F08830C9F08430B1F48091E5
:1003500080008F7D03C0809180008F778093800024
:10036000089584B58F7784BD089584B58F7DFBCFC4
:100370008091B0008F778093B00008958091B00095
:100380008F7DF9CF1F93CF93DF93282F30E0F901B2
:10039000E255FF4F8491F901E656FF4FD491F901E0
:1003A000EA57FF4FC491CC23A9F0162F81110E9468
:1003B0009901EC2FF0E0EE0FFF1FE859FF4FA591D8
:1003C000B4918FB7F894EC91111108C0D095DE2349
:1003D000DC938FBFDF91CF911F910895DE2BF8CF73
:1003E0003FB7F89480911D0190911E01A0911F01CB
:1003F000B091200126B5A89B05C02F3F19F00196AA
:10040000A11DB11D3FBFBA2FA92F982F8827BC016E
:10041000CD01620F711D811D911D42E0660F771F96
:10042000881F991F4A95D1F708958F929F92AF9296
:10043000BF92CF92DF92EF92FF926B017C010E94FC
:10044000F0014B015C01C114D104E104F104B9F0E5
:100450000E94F001681979098A099B09683E734076
:100460008105910580F321E0C21AD108E108F10865
:1004700088EE880E83E0981EA11CB11CE4CFFF908B
:10048000EF90DF90CF90BF90AF909F908F900895A6
:100490008F929F92AF92BF920F931F93CF93DF9350
:1004A000CDB7DEB7A1970FB6F894DEBF0FBECDBFB4
:1004B00019A2423008F44AE08E010F5D1F4F842ECE
:1004C000912CB12CA12CA50194010E949804E62F37
:1004D000B901CA01EA3044F5E05DD801EE938D011F
:1004E000232B242B252B79F790E080E0109769F0DF
:1004F000FD0101900020E9F73197AF014A1B5B0B2A
:10050000BD0185E291E00E948C00A1960FB6F8949F
:10051000DEBF0FBECDBFDF91CF911F910F91BF9076
:10052000AF909F908F900895E95CD7CF1F920F9264
:100530000FB60F9211242F933F934F935F936F93B6
:100540007F938F939F93AF93BF93EF93FF9385E236
:1005500091E00E940A01FF91EF91BF91AF919F91AD
:100560008F917F916F915F914F913F912F910F905C
:100570000FBE0F901F9018951F920F920FB60F92FB
:1005800011242F938F939F93EF93FF93E091350165
:10059000F09136018081E0913B01F0913C0182FDB8
:1005A0001BC0908180913E018F5F8F7320913F012E
:1005B000821741F0E0913E01F0E0EB5DFE4F958F38
:1005C00080933E01FF91EF919F918F912F910F901A
:1005D0000FBE0F901F9018958081F4CF1F920F923D
:1005E0000FB60F9211242F933F938F939F93AF9346
:1005F000BF938091190190911A01A0911B01B091B4
:100600001C013091180123E0230F2D3758F5019676
:10061000A11DB11D209318018093190190931A0117
:10062000A0931B01B0931C0180911D0190911E01AC
:10063000A0911F01B09120010196A11DB11D8093D1
:100640001D0190931E01A0931F01B0932001BF9143
:10065000AF919F918F913F912F910F900FBE0F906F
:100660001F90189526E8230F0296A11DB11DD2CF29
:10067000789484B5826084BD84B5816084BD85B57D
:10068000826085BD85B5816085BD80916E00816089
:1006900080936E001092810080918100826080932F
:1006A0008100809181008160809381008091800031
:1006B0008160809380008091B10084608093B1005C
:1006C0008091B00081608093B00080917A00846056
:1006D00080937A0080917A00826080937A00809182
:1006E0007A00816080937A0080917A00806880939C
:1006F0007A001092C100E5EAF0E02491E1E9F0E02F
:100700008491882399F090E0880F991FFC01EE589E
:10071000FF4FA591B491FC01E859FF4F8591949149
:100720008FB7F894EC91E22BEC938FBFC8EAD0E03E
:10073000FE01249104E910E0F80184918823C9F0B6
:1007400090E0880F991FFC01EE58FF4FA591B491DE
:10075000FC01E859FF4F459154913FB7F8949C91A3
:10076000822F809598239C93FA019081892380831E
:100770003FBFE0913501F091360182E08083E09146
:100780003101F09132011082E0913301F091340196
:100790008FEC808310923D01E0913901F0913A0194
:1007A00086E08083E0913701F0913801808180619B
:1007B0008083E0913701F0913801808188608083E7
:1007C000E0913701F0913801808180688083E09169
:1007D0003701F091380180818F7D80839CEBE92E79
:1007E00090E0F92E20E0C22E20E0D22EF701849175
:1007F000FE01A490F801B49070E060E0BB2099F095
:1008000081110E949901EB2DF0E0EE0FFF1FE458DB
:10081000FF4FA591B4918C91A82291E080E009F45A
:1008200090E0692F782F7093240160932301072EA5
:10083000000C880B990B4AE00E94480242E050E00D
:1008400064E171E085E291E00E948C0062E370E077
:1008500080E090E00E9415028091000190910101DA
:10086000892BB1F4A0902301B0902401F1E0AF16E0
:10087000B10471F48091210190912201892B11F52D
:1008800061E08BE00E94C201B0922201A09221019E
:1008900080912301909124019093010180930001A4
:1008A00062E370E080E090E00E941502C114D10480
:1008B00009F49CCF0E94F600882309F497CF0E9488
:1008C000000094CF60E08BE00E94C20110922201F0
:1008D00010922101DDCFE5E2F1E01382128288EE71
:1008E00093E0A0E0B0E084839583A683B78386E09D
:1008F00091E09183808385EC90E09587848784ECF8
:1009000090E09787868780EC90E0918B808B81ECDC
:1009100090E0938B828B82EC90E0958B848B86ECBD
:1009200090E0978B868B118E128E138E148E089505
:10093000A1E21A2EAA1BBB1BFD010DC0AA1FBB1FE3
:10094000EE1FFF1FA217B307E407F50720F0A21B55
:10095000B30BE40BF50B661F771F881F991F1A94C2
:1009600069F760957095809590959B01AC01BD01EC
:10097000CF010895EE0FFF1F0590F491E02D09942B
:04098000F894FFCF19
:100984000100000000002C018C00B9007901EA008C
:08099400C800DC000D0A0000A0
:00000001FF
