:020000040000FA
:100000000C945D000C9485000C9485000C94850084
:100010000C9485000C9485000C9485000C9485004C
:100020000C9485000C9485000C9485000C9485003C
:100030000C9485000C9485000C9485000C9485002C
:100040000C94ED020C9485000C94BB020C94950268
:100050000C9485000C9485000C9485000C9485000C
:100060000C9485000C9485000000000024002700FB
:100070002A0000000000250028002B0004040404CE
:100080000404040402020202020203030303030342
:10009000010204081020408001020408102001021F
:1000A00004081020000000080002010000030407FB
:1000B0000000000000000000350511241FBECFEF36
:1000C000D8E0DEBFCDBF11E0A0E0B1E0ECEAFEE099
:1000D00002C005900D92A638B107D9F722E0A6E834
:1000E000B1E001C01D92A033B207E1F710E0CDE509
:1000F000D0E004C02197FE010E944E07CC35D10705
:10010000C9F70E9437030C9454070C940000AF9277
:10011000BF92CF92DF92EF92FF920F931F93CF93F4
:10012000DF936C017B018B01040F151FEB015E0156
:10013000AE18BF08C017D10759F06991D601ED91EB
:10014000FC910190F081E02DC6010995892B79F78A
:10015000C501DF91CF911F910F91FF90EF90DF903C
:10016000CF90BF90AF900895FC01538D448D252F03
:1001700030E0842F90E0821B930B541710F0CF9641
:10018000089501970895FC01918D828D981761F073
:10019000A28DAE0FBF2FB11D5D968C91928D9F5F8A
:1001A0009F73928F90E008958FEF9FEF0895FC0169
:1001B000918D828D981731F0828DE80FF11D858D1C
:1001C00090E008958FEF9FEF0895FC01918D228DAF
:1001D000892F90E0805C9F4F821B91098F73992734
:1001E000089583E991E00E94E50021E0892B09F45C
:1001F00020E0822F089580E090E0892B29F00E9472
:10020000F10081110C9400000895FC01A48DA80F49
:10021000B92FB11DA35ABF4F2C91848D90E0019648
:100220008F739927848FA689B7892C93A089B18968
:100230008C91837080648C93938D848D981306C009
:100240000288F389E02D80818F7D80830895EF926D
:10025000FF920F931F93CF93DF93EC0181E0888F80
:100260009B8D8C8D98131AC0E889F989808185FF50
:1002700015C09FB7F894EE89FF896083E889F989F2
:1002800080818370806480839FBF81E090E0DF91F4
:10029000CF911F910F91FF90EF900895F62E0B8D47
:1002A00010E00F5F1F4F0F731127E02E8C8D8E1102
:1002B0000CC00FB607FCFACFE889F989808185FF69
:1002C000F5CFCE010E940501F1CFEB8DEC0FFD2F94
:1002D000F11DE35AFF4FF0829FB7F8940B8FEA8924
:1002E000FB8980818062CFCFCF93DF93EC01888D33
:1002F0008823B9F0AA89BB89E889F9898C9185FDA1
:1003000003C0808186FD0DC00FB607FCF7CF8C912E
:1003100085FFF2CF808185FFEDCFCE010E940501E0
:10032000E9CFDF91CF91089590E0FC01EC55FF4FAC
:100330002491FC01E057FF4F3491FC01E458FF4F3A
:10034000E491EE23C9F0222339F0233001F1A8F41F
:10035000213019F1223029F1F0E0EE0FFF1FEE58A5
:10036000FF4FA591B4918FB7F894EC91611126C01D
:1003700030953E233C938FBF08952730A9F0283055
:10038000C9F0243049F7809180008F7D03C08091AF
:1003900080008F7780938000DFCF84B58F7784BD16
:1003A000DBCF84B58F7DFBCF8091B0008F778093BA
:1003B000B000D2CF8091B0008F7DF9CF3E2BDACF45
:1003C000CF93DF9390E0FC01E057FF4F24918458D6
:1003D0009F4FFC0184918823D1F090E0880F991FF2
:1003E000FC01E859FF4FA591B491FC01EE58FF4F75
:1003F000C591D49161110EC09FB7F8948C91E22FF2
:10040000E0958E238C932881E223E8839FBFDF91C0
:10041000CF9108958FB7F894EC91E22BEC938FBFB6
:10042000F6CF3FB7F89480918B0190918C01A09109
:100430008D01B0918E0126B5A89B05C02F3F19F004
:100440000196A11DB11D3FBFBA2FA92F982F882754
:10045000BC01CD01620F711D811D911D42E0660F2F
:10046000771F881F991F4A95D1F70895FC010190C5
:100470000020E9F73197AF01481B590BBC0183E914
:1004800091E00C9487008F929F92AF92BF920F934E
:100490001F93CF93DF93CDB7DEB7A1970FB6F89434
:1004A000DEBF0FBECDBF19A2423008F44AE08E0174
:1004B0000F5D1F4F842E912CB12CA12CA50194010E
:1004C0000E942C07E62FB901CA01EA30F4F4E05D7E
:1004D000D801EE938D01232B242B252B79F790E067
:1004E00080E0109719F0CD010E943602A1960FB658
:1004F000F894DEBF0FBECDBFDF91CF911F910F915A
:10050000BF90AF909F908F900895E95CE1CFCF931B
:10051000DF930E943602EC0182E191E00E943602F4
:100520008C0F9D1FDF91CF9108951F920F920FB6F0
:100530000F9211242F933F934F935F936F937F9369
:100540008F939F93AF93BF93EF93FF9383E991E0D2
:100550000E940501FF91EF91BF91AF919F918F9103
:100560007F916F915F914F913F912F910F900FBEAF
:100570000F901F9018951F920F920FB60F92112493
:100580002F938F939F93EF93FF93E091A301F091AB
:10059000A4018081E091A901F091AA0182FD1BC014
:1005A00090818091AC018F5F8F732091AD01821794
:1005B00041F0E091AC01F0E0ED56FE4F958F809355
:1005C000AC01FF91EF919F918F912F910F900FBEF2
:1005D0000F901F9018958081F4CF1F920F920FB645
:1005E0000F9211242F933F938F939F93AF93BF93B9
:1005F0008091870190918801A0918901B0918A0131
:100600003091860123E0230F2D3758F50196A11D67
:10061000B11D209386018093870190938801A09358
:100620008901B0938A0180918B0190918C01A091F6
:100630008D01B0918E010196A11DB11D80938B019A
:1006400090938C01A0938D01B0938E01BF91AF91D7
:100650009F918F913F912F910F900FBE0F901F9000
:10066000189526E8230F0296A11DB11DD2CF7894CC
:1006700084B5826084BD84B5816084BD85B58260A7
:1006800085BD85B5816085BD80916E008160809358
:100690006E001092810080918100826080938100C1
:1006A00080918100816080938100809180008160D1
:1006B000809380008091B10084608093B10080912C
:1006C000B00081608093B00080917A008460809354
:1006D0007A0080917A00826080937A0080917A001B
:1006E000816080937A0080917A00806880937A009C
:1006F0001092C10061E089E00E94E00161E08AE0BF
:100700000E94E00161E08BE00E94E00160E08EE089
:100710000E94E001E091A301F091A40182E08083B6
:10072000E0919F01F091A0011082E091A101F09170
:10073000A2018FEC80831092AB01E091A701F091B0
:10074000A80186E08083E091A501F091A601808157
:1007500080618083E091A501F091A601808188608D
:100760008083E091A501F091A6018081806880835B
:10077000E091A501F091A60180818F7D808310E436
:10078000C0E0D0E010937C0080917A008064809378
:100790007A0080917A0086FDFCCF8091780060918C
:1007A0007900762F682F072E000C880B990B0E947A
:1007B00005062AE038E240EA5BE30E94BA0660934D
:1007C0008F0170939001809391019093920185E144
:1007D00091E00E943602C0908F01D0909001E0908D
:1007E0009101F0909201A7019601C701B6010E9404
:1007F0002707882309F4A7C08DE291E00E94360202
:1008000082E191E00E94360220E030E040E250E4D4
:1008100060918F017091900180919101909192016E
:100820000E94CF0587FF10C061E089E00E9494011B
:1008300060E08AE00E94940160E08BE00E949401F5
:1008400089E391E00E948702C0908F01D0909001CF
:10085000E0909101F090920120E030E040E250E41D
:10086000C701B6010E94B5061816D4F420E030E0A6
:1008700040E650E4C701B6010E94CF0587FF10C0D3
:1008800060E089E00E94940161E08AE00E949401A6
:1008900060E08BE00E94940185E591E00E94870270
:1008A00020E030E040E650E460918F0170919001CB
:1008B00080919101909192010E94B506181684F4DE
:1008C00060E089E00E94940160E08AE00E94940167
:1008D00061E08BE00E9494018DE691E00E94870226
:1008E00082E191E00E9436020E9411026B017C01BC
:1008F00088EC882E912CA12CB12C0E9411026C192D
:100900007D098E099F09683E734081059105A8F312
:1009100021E0821A9108A108B10888EEC80E83E090
:10092000D81EE11CF11C81149104A104B10429F723
:10093000209709F427CF0E94F100882309F422CFE1
:100940000E9400001FCF46015701E894B7F82FEF2F
:100950003FEF4FE75FE7C501B4010E942707811110
:100960000DC02FEF3FEF4FE75FE7C501B4010E94D5
:10097000CF0518161CF481E391E040CF2FEF3FEF35
:100980004FE75FE4C701B6010E94B50618161CF4D4
:1009900085E391E033CF2FEF3FEF4FE75FECC701E7
:1009A000B6010E94CF0587FDF3CF20E030E0A9011A
:1009B000C701B6010E94CF0587FF09C06DE283E938
:1009C00091E00E942701F7FAF094F7F8F0942AE0FA
:1009D00037ED43EA5BE3C701B6010E9463054B01B3
:1009E0005C010E94D4056B017C010E9403069B01FF
:1009F000AC01C501B4010E9462054B015C014AE0F3
:100A0000C701B6010E9443026EE283E991E00E94B1
:100A1000270120E030E040E251E4C501B4010E942A
:100A2000BA064B015C010E94D4056B01F12CE12C4C
:100A30004AE0C701B6010E944302C701B6010E9405
:100A400003069B01AC01C501B4010E94620520E0D0
:100A500030E040E251E40E94BA060E94D40590E0E2
:100A600080E04AE00E944302CBCEE3E9F1E013824A
:100A7000128288EE93E0A0E0B0E084839583A683A1
:100A8000B78384E091E09183808385EC90E0958743
:100A9000848784EC90E09787868780EC90E0918B48
:100AA000808B81EC90E0938B828B82EC90E0958B35
:100AB000848B86EC90E0978B868B118E128E138E32
:100AC000148E08955058BB27AA270E947A050C94CB
:100AD0007B060E946D0638F00E94740620F039F4FF
:100AE0009F3F19F426F40C946A060EF4E095E7FB98
:100AF0000C946406E92F0E948C0658F3BA1762071B
:100B000073078407950720F079F4A6F50C94AE06D8
:100B10000EF4E0950B2EBA2FA02D0B01B901900118
:100B20000C01CA01A0011124FF27591B99F0593F5C
:100B300050F4503E68F11A16F040A22F232F342FA4
:100B40004427585FF3CF469537952795A795F040F2
:100B50005395C9F77EF41F16BA0B620B730B840B07
:100B6000BAF09150A1F0FF0FBB1F661F771F881FBF
:100B7000C2F70EC0BA0F621F731F841F48F4879517
:100B800077956795B795F7959E3F08F0B0CF939509
:100B9000880F08F09927EE0F9795879508950E9482
:100BA000400608F481E008950E94940688F09F575B
:100BB00098F0B92F9927B751B0F0E1F0660F771F81
:100BC000881F991F1AF0BA95C9F714C0B13091F077
:100BD0000E94AE06B1E008950C94AE06672F782F00
:100BE0008827B85F39F0B93FCCF38695779567953C
:100BF000B395D9F73EF490958095709561957F4FA8
:100C00008F4F9F4F0895E89409C097FB3EF490954D
:100C10008095709561957F4F8F4F9F4F9923A9F0D5
:100C2000F92F96E9BB279395F69587957795679564
:100C3000B795F111F8CFFAF4BB0F11F460FF1BC0A8
:100C40006F5F7F4F8F4F9F4F16C0882311F096E93B
:100C500011C0772321F09EE8872F762F05C06623E9
:100C600071F096E8862F70E060E02AF09A95660FA2
:100C7000771F881FDAF7880F9695879597F908955B
:100C8000990F0008550FAA0BE0E8FEEF161617069D
:100C9000E807F907C0F012161306E407F50798F005
:100CA000621B730B840B950B39F40A2661F0232B1E
:100CB000242B252B21F408950A2609F4A140A6959A
:100CC0008FEF811D811D089597F99F6780E870E07F
:100CD00060E008959FEF80EC089500240A941616B2
:100CE000170618060906089500240A94121613061A
:100CF000140605060895092E0394000C11F48823A8
:100D000052F0BB0F40F4BF2B11F460FF04C06F5FC3
:100D10007F4F8F4F9F4F089557FD9058440F551F99
:100D200059F05F3F71F04795880F97FB991F61F06D
:100D30009F3F79F087950895121613061406551FE4
:100D4000F2CF4695F1DF08C0161617061806991F50
:100D5000F1CF86957105610508940895E894BB2745
:100D600066277727CB0197F908950E94400608F47B
:100D70008FEF08950E94CD060C947B060E946D06AD
:100D800038F00E94740620F0952311F00C9464064C
:100D90000C946A0611240C94AF060E948C0670F322
:100DA000959FC1F3950F50E0551F629FF001729F10
:100DB000BB27F00DB11D639FAA27F00DB11DAA1F1F
:100DC000649F6627B00DA11D661F829F2227B00D6C
:100DD000A11D621F739FB00DA11D621F839FA00DF7
:100DE000611D221F749F3327A00D611D231F849F47
:100DF000600D211D822F762F6A2F11249F5750409E
:100E00009AF0F1F088234AF0EE0FFF1FBB1F661F18
:100E1000771F881F91505040A9F79E3F510580F0E1
:100E20000C9464060C94AF065F3FE4F3983ED4F351
:100E3000869577956795B795F795E7959F5FC1F785
:100E4000FE2B880F911D9695879597F908950E941E
:100E50004006880B990B0895A1E21A2EAA1BBB1B12
:100E6000FD010DC0AA1FBB1FEE1FFF1FA217B30776
:100E7000E407F50720F0A21BB30BE40BF50B661F8C
:100E8000771F881F991F1A9469F760957095809550
:100E900090959B01AC01BD01CF010895EE0FFF1F9E
:100EA0000590F491E02D0994F894FFCF0000000024
:100EB00027018700B4007401E500C300D7000D0AC4
:100EC00000506F74656E74696F6D6574657220563D
:100ED000616C756520697320006E616E00696E66D5
:100EE000006F7666004E4F5448494E4720544F20BD
:100EF000574F5252592041424F5554204845524570
:100F000000534C4F5720444F574E204D59204755C2
:100F1000592C204348494C4C0043414C4D205448E7
:100F200045204655434B20444F574E204455444599
:020F30000000BF
:107E0000112484B714BE81FFF0D085E080938100F7
:107E100082E08093C00088E18093C10086E0809377
:107E2000C20080E18093C4008EE0C9D0259A86E02C
:107E300020E33CEF91E0309385002093840096BBD3
:107E4000B09BFECF1D9AA8958150A9F7CC24DD24C4
:107E500088248394B5E0AB2EA1E19A2EF3E0BF2EE7
:107E6000A2D0813461F49FD0082FAFD0023811F036
:107E7000013811F484E001C083E08DD089C08234E0
:107E800011F484E103C0853419F485E0A6D080C0E4
:107E9000853579F488D0E82EFF2485D0082F10E0AE
:107EA000102F00270E291F29000F111F8ED06801E7
:107EB0006FC0863521F484E090D080E0DECF843638
:107EC00009F040C070D06FD0082F6DD080E0C81688
:107ED00080E7D80618F4F601B7BEE895C0E0D1E017
:107EE00062D089930C17E1F7F0E0CF16F0E7DF06D8
:107EF00018F0F601B7BEE89568D007B600FCFDCFD4
:107F0000A601A0E0B1E02C9130E011968C91119780
:107F100090E0982F8827822B932B1296FA010C0160
:107F200087BEE89511244E5F5F4FF1E0A038BF0790
:107F300051F7F601A7BEE89507B600FCFDCF97BE46
:107F4000E89526C08437B1F42ED02DD0F82E2BD052
:107F50003CD0F601EF2C8F010F5F1F4F84911BD097
:107F6000EA94F801C1F70894C11CD11CFA94CF0C13
:107F7000D11C0EC0853739F428D08EE10CD085E9AC
:107F80000AD08FE07ACF813511F488E018D01DD067
:107F900080E101D065CF982F8091C00085FFFCCF94
:107FA0009093C60008958091C00087FFFCCF809118
:107FB000C00084FD01C0A8958091C6000895E0E648
:107FC000F0E098E1908380830895EDDF803219F02E
:107FD00088E0F5DFFFCF84E1DECF1F93182FE3DFCA
:107FE0001150E9F7F2DF1F91089580E0E8DFEE27F6
:047FF000FF270994CA
:027FFE00040479
:00000001FF
