:020000040000FA
:100000000C9436000C945E000C945E000C945E0020
:100010000C945E000C945E000C945E000C945E00E8
:100020000C945E000C945E000C945E000C945E00D8
:100030000C945E000C945E000C945E000C945E00C8
:100040000C94FE010C945E000C946E020C94480219
:100050000C945E000C945E000C945E000C945E00A8
:100060000C945E000C945E00DF02180511241FBE84
:10007000CFEFD8E0DEBFCDBF22E0AAE5B1E001C0FE
:100080001D92A431B207E1F711E0A0E0B1E0E6ED86
:10009000F2E102C005900D92AA35B107D9F710E040
:1000A000C5E3D0E004C02197FE010E946607C43377
:1000B000D107C9F70E9429030C945E090C94000033
:1000C000AF92BF92CF92DF92EF92FF920F931F9366
:1000D000CF93DF936C017B018B01040F151FEB01A4
:1000E0005E01AE18BF08C017D10759F06991D6015B
:1000F000ED91FC910190F081E02DC6010995892BCD
:1001000079F7C501DF91CF911F910F91FF90EF908B
:10011000DF90CF90BF90AF900895FC01538D448D38
:10012000252F30E0842F90E0821B930B541710F0A2
:10013000CF96089501970895FC01918D828D9817AF
:1001400061F0A28DAE0FBF2FB11D5D968C91928D87
:100150009F5F9F73928F90E008958FEF9FEF0895B8
:10016000FC01918D828D981731F0828DE80FF11D81
:10017000858D90E008958FEF9FEF08952FB7F89445
:100180008091630190916401A0916501B091660135
:100190002FBF80936F0190937001A0937101B09372
:1001A000720187E691E00E94B00097FF26C02FB74A
:1001B000F8948091630190916401A0916501B091E0
:1001C00066012FBF40916F015091700160917101E4
:1001D00070917201841B950BA60BB70B40916B01BC
:1001E00050916C0160916D0170916E0184179507BB
:1001F000A607B707B0F28FEF9FEF0895FC01918D2E
:10020000228D892F90E0805C9F4F821B91098F7314
:100210009927089587E691E00E94FE0021E0892B4E
:1002200009F420E0822F089580E090E0892B29F0E6
:100230000E940A0181110C9400000895FC01A48D14
:10024000A80FB92FB11DA35ABF4F2C91848D90E0F8
:1002500001968F739927848FA689B7892C93A089DB
:10026000B1898C91837080648C93938D848D981365
:1002700006C00288F389E02D80818F7D80830895F8
:10028000EF92FF920F931F93CF93DF93EC0181E0E6
:10029000888F9B8D8C8D98131AC0E889F98980818D
:1002A00085FF15C09FB7F894EE89FF896083E889C0
:1002B000F98980818370806480839FBF81E090E0B2
:1002C000DF91CF911F910F91FF90EF900895F62E3F
:1002D0000B8D10E00F5F1F4F0F731127E02E8C8DD9
:1002E0008E110CC00FB607FCFACFE889F98980811E
:1002F00085FFF5CFCE010E941E01F1CFEB8DEC0FF3
:10030000FD2FF11DE35AFF4FF0829FB7F8940B8F3A
:10031000EA89FB8980818062CFCFCF93DF93EC01A4
:10032000888D8823B9F0AA89BB89E889F9898C91DD
:1003300085FD03C0808186FD0DC00FB607FCF7CF99
:100340008C9185FFF2CF808185FFEDCFCE010E9499
:100350001E01E9CFDF91CF910895FC0101900020AB
:10036000E9F73197AF01481B590BBC0187E691E0D3
:100370000C9460008F929F92AF92BF920F931F9345
:10038000CF93DF93CDB7DEB7A1970FB6F894DEBF5A
:100390000FBECDBF19A2423008F44AE08E010F5DB6
:1003A0001F4F842E912CB12CA12CA50194010E94E9
:1003B0004407E62FB901CA01EA30F4F4E05DD80140
:1003C000EE938D01232B242B252B79F790E080E0F1
:1003D000109719F0CD010E94AD01A1960FB6F894C7
:1003E000DEBF0FBECDBFDF91CF911F910F91BF90A8
:1003F000AF909F908F900895E95CE1CF1F920F928C
:100400000FB60F9211242F933F938F939F93AF9327
:10041000BF938091630190916401A0916501B091B7
:1004200066013091620123E0230F2D3758F50196C4
:10043000A11DB11D2093620180936301909364011B
:10044000A0936501B093660180915E0190915F0178
:10045000A0916001B09161010196A11DB11D809331
:100460005E0190935F01A0936001B0936101BF9121
:10047000AF919F918F913F912F910F900FBE0F9051
:100480001F90189526E8230F0296A11DB11DD2CF0B
:100490001F920F920FB60F9211242F933F934F93F9
:1004A0005F936F937F938F939F93AF93BF93EF93DC
:1004B000FF9387E691E00E941E01FF91EF91BF91AB
:1004C000AF919F918F917F916F915F914F913F91EC
:1004D0002F910F900FBE0F901F9018951F920F92A3
:1004E0000FB60F9211242F938F939F93EF93FF9347
:1004F000E0917701F09178018081E0917D01F091A8
:100500007E0182FD1BC09081809180018F5F8F737F
:1005100020918101821741F0E0918001F0E0E959DA
:10052000FE4F958F80938001FF91EF919F918F9166
:100530002F910F900FBE0F901F9018958081F4CFD0
:10054000EF92FF920F931F93CF93DF93EC017B0108
:100550008A0188819981009729F02A813B8124179B
:10056000350788F4B8016F5F7F4F0E9491080097AC
:1005700091F0998388831B830A832C813D81232BEF
:1005800011F4FC0110821D830C83B70188819981CD
:100590000E9457090CC088819981009711F00E9430
:1005A0000808198218821D821C821B821A82CE01C1
:1005B000DF91CF911F910F91FF90EF900895E7E6A3
:1005C000F1E01382128288EE93E0A0E0B0E0848331
:1005D0009583A683B7838AE091E09183808385EC3D
:1005E00090E09587848784EC90E09787868780ECFD
:1005F00090E0918B808B81EC90E0938B828B82ECEE
:1006000090E0958B848B86EC90E0978B868B118E97
:10061000128E138E148EEAE0F2E0118210821382A1
:1006200012821582148243E250E068E171E0CF014A
:100630000E94A002E4E0F2E0118210821382128292
:10064000158214824EE050E06CE371E0CF010C940F
:10065000A002789484B5826084BD84B5816084BD35
:1006600085B5826085BD85B5816085BD80916E0050
:10067000816080936E001092810080918100826081
:1006800080938100809181008160809381008091BE
:1006900080008160809380008091B10084608093AD
:1006A000B1008091B00081608093B00080917A00A9
:1006B000846080937A0080917A00826080937A00CF
:1006C00080917A00816080937A0080917A008068BE
:1006D00080937A001092C100E0917701F091780147
:1006E00082E08083E0917301F09174011082E091C7
:1006F0007501F09176018FEC808310927F01E0917B
:100700007B01F0917C0186E08083E0917901F0919A
:100710007A01808180618083E0917901F0917A0192
:10072000808188608083E0917901F0917A018081F5
:1007300080688083E0917901F0917A0180818F7DDA
:100740008083C0E0D0E040910E0250910F02609192
:100750000A0270910B0287E691E00E9460008BE430
:1007600091E00E94AD0187E691E00E94FE00892B96
:10077000D1F30E94BE00FC0197FDC4C08D329105EB
:1007800009F04CC0812C912C80E8A82E8FE3B82E64
:10079000C12CD12C760110E000E0E130F10559F1D7
:1007A000ED32F10509F447C0EE32F10509F445C018
:1007B000CF01C0970A97F8F4AAE0B0E0A70196012C
:1007C0000E944D066F01FF0FEE08FF08C60ED71EF0
:1007D000E81EF91E80E3C81AD108E108F1081123C8
:1007E00051F02DEC3CEC4CEC5DE3C501B4010E94F2
:1007F0008F054B015C0187E691E00E949C000E94FE
:10080000BE00FC01C0970A9740F2EE32F105B9F440
:10081000112319F2102F011118C027C0C0970A9791
:1008200008F4B0CFEE32F10509F4ACCF87E691E0E1
:100830000E949C009ECF01E0DECF11E0DCCFE130D2
:10084000F10509F4AACF002341F0F094E094D0948C
:10085000C094C11CD11CE11CF11CC701B6010E944F
:1008600030052B013C01112351F0C701B6010E9454
:100870003005A50194010E948F052B013C0127E85A
:1008800036E149E450E4C301B2010E948F05A3019F
:1008900092010E948F0560935A0170935B018093CF
:1008A0005C0190935D0140910802509109026091B2
:1008B00004027091050287E691E00E946000C090FA
:1008C0005A01D0905B01E0905C01F0905D01A701BE
:1008D0009601C701B6010E943F078823B9F08EE454
:1008E00091E00E94AD018BE491E00E94AD01209760
:1008F00009F429CF0E940A01882309F424CF0E9419
:10090000000021CF412C512C3201B9CF46015701B3
:10091000E894B7F82FEF3FEF4FE75FE7C501B40169
:100920000E943F0781110DC02FEF3FEF4FE75FE7B8
:10093000C501B4010E94290518161CF482E591E056
:10094000D0CF2FEF3FEF4FE75FE4C701B6010E9422
:100950003A0718161CF486E591E0C3CF2FEF3FEF5E
:100960004FE75FECC701B6010E94290587FDF3CF71
:1009700020E030E0A901C701B6010E94290587FFE8
:1009800009C06DE287E691E00E944001F7FAF09419
:10099000F7F8F0942AE037ED43EA5BE3C701B601CC
:1009A0000E949F064B015C010E940B076B017C01BA
:1009B0000E942E059B01AC01C501B4010E949E0658
:1009C0004B015C014AE0C701B6010E94BA016EE228
:1009D00087E691E00E94400120E030E040E251E4EF
:1009E000C501B4010E948F054B015C010E940B07F9
:1009F0006B01F12CE12C4AE0C701B6010E94BA015B
:100A0000C701B6010E942E059B01AC01C501B401CE
:100A10000E949E0620E030E040E251E40E948F05F3
:100A20000E940B0790E080E04AE00E94BA015BCF91
:100A30008091040290910502009711F00E9408082D
:100A400080910A0290910B02009711F00C94080813
:100A500008950E946B0508F481E00895E89409C0A8
:100A600097FB3EF490958095709561957F4F8F4FE1
:100A70009F4F9923A9F0F92F96E9BB279395F695F7
:100A8000879577956795B795F111F8CFFAF4BB0F75
:100A900011F460FF1BC06F5F7F4F8F4F9F4F16C0D9
:100AA000882311F096E911C0772321F09EE8872F63
:100AB000762F05C0662371F096E8862F70E060E01F
:100AC0002AF09A95660F771F881FDAF7880F969598
:100AD000879597F90895990F0008550FAA0BE0E83C
:100AE000FEEF16161706E807F907C0F012161306F0
:100AF000E407F50798F0621B730B840B950B39F430
:100B00000A2661F0232B242B252B21F408950A2695
:100B100009F4A140A6958FEF811D811D08950E94C3
:100B2000A2050C9413060E94050638F00E940C06DC
:100B300020F0952311F00C94FC050C94020611246E
:100B40000C9447060E94240670F3959FC1F3950FFD
:100B500050E0551F629FF001729FBB27F00DB11D41
:100B6000639FAA27F00DB11DAA1F649F6627B00DD1
:100B7000A11D661F829F2227B00DA11D621F739FBA
:100B8000B00DA11D621F839FA00D611D221F749FC8
:100B90003327A00D611D231F849F600D211D822F0F
:100BA000762F6A2F11249F5750409AF0F1F0882336
:100BB0004AF0EE0FFF1FBB1F661F771F881F915063
:100BC0005040A9F79E3F510580F00C94FC050C9411
:100BD00047065F3FE4F3983ED4F386957795679593
:100BE000B795F795E7959F5FC1F7FE2B880F911D8D
:100BF0009695879597F9089597F99F6780E870E033
:100C000060E008959FEF80EC089500240A94161682
:100C1000170618060906089500240A9412161306EA
:100C2000140605060895092E0394000C11F4882378
:100C300052F0BB0F40F4BF2B11F460FF04C06F5F94
:100C40007F4F8F4F9F4F089557FD9058440F551F6A
:100C500059F05F3F71F04795880F97FB991F61F03E
:100C60009F3F79F087950895121613061406551FB5
:100C7000F2CF4695F1DF08C0161617061806991F21
:100C8000F1CF86957105610508940895E894BB2716
:100C900066277727CB0197F908950E948F06A59FB5
:100CA000900DB49F900DA49F800D911D1124089567
:100CB0002F923F924F925F926F927F928F929F926C
:100CC000AF92BF92CF92DF92EF92FF920F931F935A
:100CD000CF93DF93CDB7DEB7CA1BDB0B0FB6F8940B
:100CE000DEBF0FBECDBF09942A88398848885F844B
:100CF0006E847D848C849B84AA84B984C884DF80BC
:100D0000EE80FD800C811B81AA81B981CE0FD11D9F
:100D10000FB6F894DEBF0FBECDBFED010895A29FC0
:100D2000B001B39FC001A39F700D811D1124911DBF
:100D3000B29F700D811D1124911D08955058BB273D
:100D4000AA270E94B6060C9413060E94050638F0E6
:100D50000E940C0620F039F49F3F19F426F40C94FD
:100D600002060EF4E095E7FB0C94FC05E92F0E94C7
:100D7000240658F3BA17620773078407950720F013
:100D800079F4A6F50C9446060EF4E0950B2EBA2FD6
:100D9000A02D0B01B90190010C01CA01A001112481
:100DA000FF27591B99F0593F50F4503E68F11A162D
:100DB000F040A22F232F342F4427585FF3CF4695BE
:100DC00037952795A795F0405395C9F77EF41F16E0
:100DD000BA0B620B730B840BBAF09150A1F0FF0FAA
:100DE000BB1F661F771F881FC2F70EC0BA0F621F96
:100DF000731F841F48F4879577956795B795F79586
:100E00009E3F08F0B0CF9395880F08F09927EE0F1A
:100E10009795879508950E942C0688F09F5798F023
:100E2000B92F9927B751B0F0E1F0660F771F881FEF
:100E3000991F1AF0BA95C9F714C0B13091F00E9409
:100E40004606B1E008950C944606672F782F882750
:100E5000B85F39F0B93FCCF3869577956795B39530
:100E6000D9F73EF490958095709561957F4F8F4F9F
:100E70009F4F08950E946B0508F48FEF08950E941C
:100E80006B05880B990B0895A1E21A2EAA1BBB1BB8
:100E9000FD010DC0AA1FBB1FEE1FFF1FA217B30746
:100EA000E407F50720F0A21BB30BE40BF50B661F5C
:100EB000771F881F991F1A9469F760957095809520
:100EC00090959B01AC01BD01CF010895EE0FFF1F6E
:100ED0000590F491E02D09940F931F93CF93DF9326
:100EE0008230910510F482E090E0E0911202F091DE
:100EF000130230E020E0B0E0A0E0309799F4211533
:100F0000310509F44AC0281B390B24303105D8F5C6
:100F10008A819B816115710589F1FB01938382832D
:100F2000FE0111C040815181028113814817590788
:100F3000E0F04817590799F4109761F012960C9356
:100F4000129713961C933296CF01DF91CF911F9188
:100F50000F9108950093120210931302F4CF2115FC
:100F6000310551F04217530738F0A901DB019A010E
:100F7000BD01DF01F801C1CFEF01F9CF909313025A
:100F800080931202CDCFFE01E20FF31F8193919364
:100F90002250310939832883D7CF20911002309114
:100FA0001102232B41F4209102013091030130936F
:100FB00011022093100220910001309101012115AE
:100FC000310541F42DB73EB7409104015091050120
:100FD000241B350BE0911002F0911102E217F30788
:100FE000A0F42E1B3F0B2817390778F0AC014E5F99
:100FF0005F4F2417350748F04E0F5F1F50931102C3
:1010000040931002819391939FCFF0E0E0E09CCF5A
:10101000CF93DF930097E9F0FC013297138212829D
:10102000A0911202B0911302ED0130E020E0109780
:10103000A1F420813181820F931F20911002309101
:1010400011022817390709F061C0F0931102E093EB
:101050001002DF91CF910895EA01CE17DF07E8F57E
:101060004A815B819E0141155105B1F7E901FB837E
:10107000EA8349915991C40FD51FEC17FD0761F41C
:10108000808191810296840F951FE901998388835D
:10109000828193819B838A83F0E0E0E012968D91B8
:1010A0009C9113970097B9F52D913C911197CD0123
:1010B0000296820F931F209110023091110228177F
:1010C000390739F6309751F5109213021092120237
:1010D000B0931102A0931002BCCFD383C28340818E
:1010E0005181840F951FC817D90761F44E5F5F4F78
:1010F00088819981480F591F518340838A819B8140
:10110000938382832115310509F0B0CFF093130248
:10111000E09312029ECFFD01DC01C0CF1382128248
:10112000D7CFB0E0A0E0E7E9F8E00C945A068C01D4
:10113000009751F4CB010E946C078C01C801CDB718
:10114000DEB7E0E10C947606FC01E60FF71F9C0188
:1011500022503109E217F30708F49DC0D901CD915F
:10116000DC911197C617D70798F0C530D10530F339
:10117000CE0104978617970708F3C61BD70B229753
:10118000C193D1936D937C93CF010E940808D6CF71
:101190005B01AC1ABD0A4C018C0E9D1EA09112027F
:1011A000B0911302512C412CF12CE12C109731F508
:1011B00080911002909111028815990509F05CC088
:1011C0004616570608F058C0809100019091010121
:1011D000009741F48DB79EB74091040150910501ED
:1011E000841B950BE817F90708F055C0F09311021E
:1011F000E0931002F90171836083A0CF8D919C91DF
:10120000119712966C90129713967C901397A815CD
:10121000B90559F56C0142E0C40ED11CCA14DB04B7
:1012200020F1AC014A195B09DA011296159780F09A
:101230006282738251834083D9016D937C93E11460
:10124000F10471F0D7011396FC93EE93129776CFC9
:1012500022968C0F9D1FF90191838083F301EFCFBC
:10126000F0931302E093120269CF4816590608F46E
:101270002C017D01D3019ACFCB010E946C077C0128
:10128000009749F0AE01B8010E944E09C8010E94C2
:101290000808870153CF10E000E050CFFB01DC01CC
:1012A00002C001900D9241505040D8F70895FB01C3
:1012B000DC0101900D920020E1F7089510E0C5E3F4
:1012C000D0E004C0FE010E9466072196C633D10714
:1012D000C9F7F894FFCF000014028000000000005E
:1012E000400160008D008D01FE009C00B000576839
:1012F0006174204973205468652052616469757374
:10130000204F6620596F757220436972636C653A8D
:101310002000596F757220417265612069733A200F
:10132000000D0A006E616E00696E66006F766600E1
:107E0000112484B714BE81FFF0D085E080938100F7
:107E100082E08093C00088E18093C10086E0809377
:107E2000C20080E18093C4008EE0C9D0259A86E02C
:107E300020E33CEF91E0309385002093840096BBD3
:107E4000B09BFECF1D9AA8958150A9F7CC24DD24C4
:107E500088248394B5E0AB2EA1E19A2EF3E0BF2EE7
:107E6000A2D0813461F49FD0082FAFD0023811F036
:107E7000013811F484E001C083E08DD089C08234E0
:107E800011F484E103C0853419F485E0A6D080C0E4
:107E9000853579F488D0E82EFF2485D0082F10E0AE
:107EA000102F00270E291F29000F111F8ED06801E7
:107EB0006FC0863521F484E090D080E0DECF843638
:107EC00009F040C070D06FD0082F6DD080E0C81688
:107ED00080E7D80618F4F601B7BEE895C0E0D1E017
:107EE00062D089930C17E1F7F0E0CF16F0E7DF06D8
:107EF00018F0F601B7BEE89568D007B600FCFDCFD4
:107F0000A601A0E0B1E02C9130E011968C91119780
:107F100090E0982F8827822B932B1296FA010C0160
:107F200087BEE89511244E5F5F4FF1E0A038BF0790
:107F300051F7F601A7BEE89507B600FCFDCF97BE46
:107F4000E89526C08437B1F42ED02DD0F82E2BD052
:107F50003CD0F601EF2C8F010F5F1F4F84911BD097
:107F6000EA94F801C1F70894C11CD11CFA94CF0C13
:107F7000D11C0EC0853739F428D08EE10CD085E9AC
:107F80000AD08FE07ACF813511F488E018D01DD067
:107F900080E101D065CF982F8091C00085FFFCCF94
:107FA0009093C60008958091C00087FFFCCF809118
:107FB000C00084FD01C0A8958091C6000895E0E648
:107FC000F0E098E1908380830895EDDF803219F02E
:107FD00088E0F5DFFFCF84E1DECF1F93182FE3DFCA
:107FE0001150E9F7F2DF1F91089580E0E8DFEE27F6
:047FF000FF270994CA
:027FFE00040479
:00000001FF
