:020000040000FA
:100000000C945D000C9485000C9485000C94850084
:100010000C9485000C9485000C9485000C9485004C
:100020000C9485000C9485000C9485000C9485003C
:100030000C9485000C9485000C9485000C9485002C
:100040000C948E020C9485000C945C020C94360285
:100050000C9485000C9485000C9485000C9485000C
:100060000C9485000C9485000000000024002700FB
:100070002A0000000000250028002B0004040404CE
:100080000404040402020202020203030303030342
:10009000010204081020408001020408102001021F
:1000A00004081020000000080002010000030407FB
:1000B0000000000000000000760411241FBECFEFF6
:1000C000D8E0DEBFCDBF11E0A0E0B1E0E6EDFCE09E
:1000D00002C005900D92A631B107D9F721E0A6E143
:1000E000B1E001C01D92AE3BB207E1F710E0CDE5F3
:1000F000D0E004C02197FE010E946306CC35D107F1
:10010000C9F70E94D8020C9469060C940000AF92C3
:10011000BF92CF92DF92EF92FF920F931F93CF93F4
:10012000DF936C017B018B01040F151FEB015E0156
:10013000AE18BF08C017D10759F06991D601ED91EB
:10014000FC910190F081E02DC6010995892B79F78A
:10015000C501DF91CF911F910F91FF90EF90DF903C
:10016000CF90BF90AF900895FC01538D448D252F03
:1001700030E0842F90E0821B930B541710F0CF9641
:10018000089501970895FC01918D828D981761F073
:10019000A28DAE0FBF2FB11D5D968C91928D9F5F8A
:1001A0009F73928F90E008958FEF9FEF0895FC0169
:1001B000918D828D981731F0828DE80FF11D858D1C
:1001C00090E008958FEF9FEF0895FC01918D228DAF
:1001D000892F90E0805C9F4F821B91098F73992734
:1001E00008958FE191E00E94E50021E0892B09F458
:1001F00020E0822F089580E090E0892B29F00E9472
:10020000F10081110C9400000895FC01A48DA80F49
:10021000B92FB11DA35ABF4F2C91848D90E0019648
:100220008F739927848FA689B7892C93A089B18968
:100230008C91837080648C93938D848D981306C009
:100240000288F389E02D80818F7D80830895EF926D
:10025000FF920F931F93CF93DF93EC0181E0888F80
:100260009B8D8C8D98131AC0E889F989808185FF50
:1002700015C09FB7F894EE89FF896083E889F989F2
:1002800080818370806480839FBF81E090E0DF91F4
:10029000CF911F910F91FF90EF900895F62E0B8D47
:1002A00010E00F5F1F4F0F731127E02E8C8D8E1102
:1002B0000CC00FB607FCFACFE889F989808185FF69
:1002C000F5CFCE010E940501F1CFEB8DEC0FFD2F94
:1002D000F11DE35AFF4FF0829FB7F8940B8FEA8924
:1002E000FB8980818062CFCFCF93DF93EC01888D33
:1002F0008823B9F0AA89BB89E889F9898C9185FDA1
:1003000003C0808186FD0DC00FB607FCF7CF8C912E
:1003100085FFF2CF808185FFEDCFCE010E940501E0
:10032000E9CFDF91CF91089590E0FC01EC55FF4FAC
:100330002491FC01E057FF4F3491FC01E458FF4F3A
:10034000E491EE23C9F0222339F0233001F1A8F41F
:10035000213019F1223029F1F0E0EE0FFF1FEE58A5
:10036000FF4FA591B4918FB7F894EC91611126C01D
:1003700030953E233C938FBF08952730A9F0283055
:10038000C9F0243049F7809180008F7D03C08091AF
:1003900080008F7780938000DFCF84B58F7784BD16
:1003A000DBCF84B58F7DFBCF8091B0008F778093BA
:1003B000B000D2CF8091B0008F7DF9CF3E2BDACF45
:1003C000CF93DF9390E0FC01E057FF4F24918458D6
:1003D0009F4FFC0184918823D1F090E0880F991FF2
:1003E000FC01E859FF4FA591B491FC01EE58FF4F75
:1003F000C591D49161110EC09FB7F8948C91E22FF2
:10040000E0958E238C932881E223E8839FBFDF91C0
:10041000CF9108958FB7F894EC91E22BEC938FBFB6
:10042000F6CF3FB7F89480911B0190911C01A091E9
:100430001D01B0911E0126B5A89B05C02F3F19F0E4
:100440000196A11DB11D3FBFBA2FA92F982F882754
:10045000BC01CD01620F711D811D911D42E0660F2F
:10046000771F881F991F4A95D1F708951F920F9201
:100470000FB60F9211242F933F934F935F936F9377
:100480007F938F939F93AF93BF93EF93FF938FE1EE
:1004900091E00E940501FF91EF91BF91AF919F9173
:1004A0008F917F916F915F914F913F912F910F901D
:1004B0000FBE0F901F9018951F920F920FB60F92BC
:1004C00011242F938F939F93EF93FF93E0912F012C
:1004D000F09130018081E0913501F091360182FD8B
:1004E0001BC09081809138018F5F8F7320913901FB
:1004F000821741F0E0913801F0E0E15EFE4F958F08
:1005000080933801FF91EF919F918F912F910F90E0
:100510000FBE0F901F9018958081F4CF1F920F92FD
:100520000FB60F9211242F933F938F939F93AF9306
:10053000BF938091170190911801A0911901B0917A
:100540001A013091160123E0230F2D3758F501963B
:10055000A11DB11D209316018093170190931801DE
:10056000A0931901B0931A0180911B0190911C0175
:10057000A0911D01B0911E010196A11DB11D809396
:100580001B0190931C01A0931D01B0931E01BF910C
:10059000AF919F918F913F912F910F900FBE0F9030
:1005A0001F90189526E8230F0296A11DB11DD2CFEA
:1005B000CF93DF93CDB7DEB7A1970FB6F894DEBF28
:1005C0000FBECDBF789484B5826084BD84B5816050
:1005D00084BD85B5826085BD85B5816085BD80910E
:1005E0006E00816080936E00109281008091810086
:1005F000826080938100809181008160809381007E
:10060000809180008160809380008091B10084603F
:100610008093B1008091B00081608093B0008091A0
:100620007A00846080937A0080917A00826080935F
:100630007A0080917A00816080937A0080917A00BC
:10064000806880937A001092C10060E08EE00E9482
:10065000E00161E086E00E94E001E0912F01F0916D
:10066000300182E08083E0912B01F0912C01108217
:10067000E0912D01F0912E018FEC808310923701D3
:10068000E0913301F091340186E08083E091310103
:10069000F0913201808180618083E0913101F0919D
:1006A0003201808188608083E0913101F0913201D4
:1006B000808180688083E0913101F09132018081F6
:1006C0008F7D80839AE0492E512C612C712C2AEA6F
:1006D000222E20E0322E00E010E020E420937C0067
:1006E00080917A00806480937A0080917A0086FD00
:1006F000FCCF9091780080917900892798278927ED
:100700009093BD018093BC016C01092E000CEE0892
:10071000FF0897FF8DC06DE28FE191E00E942701F5
:1007200022273327A9012C193D094E095F0919A277
:10073000CE0181967C01CA01B901A30192010E94F8
:100740004106605DF70162937F0121153105410586
:10075000510589F7E114F10461F001900020E9F7F7
:100760003197AF014E195F09B7018FE191E00E9407
:10077000870042E050E062E171E08FE191E00E9489
:1007800087000E9411024B015C0184E6C82ED12C27
:10079000E12CF12C0E941102681979098A099B0940
:1007A000683E734081059105A8F3F1E0CF1AD108A6
:1007B000E108F10828EE820E23E0921EA11CB11C74
:1007C000C114D104E104F10429F76091BC017091D6
:1007D000BD01072E000C880B990B0E94480520EDE7
:1007E0003FE34FE75EE30E94D4059B01AC0160E06C
:1007F00070E08FE793E40E94A3040E9410054B0170
:100800007B0161E086E00E94E0018114910431F5F2
:1008100060E086E00E9494010115110509F45DCFA6
:100820000E94F100882309F458CF0E94000055CFA0
:10083000A701960119A2CE0181967C01CA01B901D6
:10084000A30192010E944106605DF70162937F015E
:10085000211531054105510589F77CCFFFEF8F1632
:10086000910411F461E0D5CFF1018491833021F13D
:1008700048F48130B9F08230D1F0F0E8EF16F1049D
:100880008CF7C6CF873011F1883041F18430A9F759
:100890008091800080628093800090928B00809293
:1008A0008A00BACF84B5806884BD87BCB5CF84B5D3
:1008B000806284BD88BCB0CF8091800080688093C6
:1008C00080009092890080928800A6CF8091B0002D
:1008D00080688093B0008092B3009ECF8091B0007A
:1008E00080628093B0008092B40096CFEFE1F1E097
:1008F0001382128288EE93E0A0E0B0E084839583B7
:10090000A683B78384E091E09183808385EC90E0B7
:100910009587848784EC90E09787868780EC90E0C9
:10092000918B808B81EC90E0938B828B82EC90E0BA
:10093000958B848B86EC90E0978B868B118E128E34
:10094000138E148E08955058BB27AA270E94BB040B
:100950000C949A050E948C0538F00E94930520F0B3
:1009600039F49F3F19F426F40C9489050EF4E095B0
:10097000E7FB0C948305E92F0E94AB0558F3BA17E7
:10098000620773078407950720F079F4A6F50C94A5
:10099000CD050EF4E0950B2EBA2FA02D0B01B90159
:1009A00090010C01CA01A0011124FF27591B99F0E5
:1009B000593F50F4503E68F11A16F040A22F232FF1
:1009C000342F4427585FF3CF469537952795A79541
:1009D000F0405395C9F77EF41F16BA0B620B730BE8
:1009E000840BBAF09150A1F0FF0FBB1F661F771F59
:1009F000881FC2F70EC0BA0F621F731F841F48F40E
:100A0000879577956795B795F7959E3F08F0B0CF96
:100A10009395880F08F09927EE0F9795879508957D
:100A20000E9417056894B1110C94CE0508950E9498
:100A3000B30588F09F5798F0B92F9927B751B0F0B8
:100A4000E1F0660F771F881F991F1AF0BA95C9F752
:100A500014C0B13091F00E94CD05B1E008950C941E
:100A6000CD05672F782F8827B85F39F0B93FCCF3D1
:100A7000869577956795B395D9F73EF490958095CF
:100A8000709561957F4F8F4F9F4F0895E89409C0EF
:100A900097FB3EF490958095709561957F4F8F4FB1
:100AA0009F4F9923A9F0F92F96E9BB279395F695C7
:100AB000879577956795B795F111F8CFFAF4BB0F45
:100AC00011F460FF1BC06F5F7F4F8F4F9F4F16C0A9
:100AD000882311F096E911C0772321F09EE8872F33
:100AE000762F05C0662371F096E8862F70E060E0EF
:100AF0002AF09A95660F771F881FDAF7880F969568
:100B0000879597F9089597F99F6780E870E060E00E
:100B100008959FEF80EC089500240A941616170696
:100B200018060906089500240A94121613061406DE
:100B300005060895092E0394000C11F4882352F041
:100B4000BB0F40F4BF2B11F460FF04C06F5F7F4FF9
:100B50008F4F9F4F089557FD9058440F551F59F0E0
:100B60005F3F71F04795880F97FB991F61F09F3F9A
:100B700079F087950895121613061406551FF2CFC3
:100B80004695F1DF08C0161617061806991FF1CF13
:100B900086957105610508940895E894BB2766273A
:100BA0007727CB0197F908950E94E7050C949A05E1
:100BB0000E948C0538F00E94930520F0952311F0D7
:100BC0000C9483050C94890511240C94CE050E9485
:100BD000AB0570F3959FC1F3950F50E0551F629FD1
:100BE000F001729FBB27F00DB11D639FAA27F00D86
:100BF000B11DAA1F649F6627B00DA11D661F829FAD
:100C00002227B00DA11D621F739FB00DA11D621F91
:100C1000839FA00D611D221F749F3327A00D611DAE
:100C2000231F849F600D211D822F762F6A2F112490
:100C30009F5750409AF0F1F088234AF0EE0FFF1FC3
:100C4000BB1F661F771F881F91505040A9F79E3F1A
:100C5000510580F00C9483050C94CE055F3FE4F3BE
:100C6000983ED4F3869577956795B795F795E79570
:100C70009F5FC1F7FE2B880F911D9695879597F979
:100C80000895A1E21A2EAA1BBB1BFD010DC0AA1FCD
:100C9000BB1FEE1FFF1FA217B307E407F50720F0E5
:100CA000A21BB30BE40BF50B661F771F881F991F60
:100CB0001A9469F760957095809590959B01AC01A9
:100CC000BD01CF010895EE0FFF1F0590F491E02DB7
:100CD0000994F894FFCF0000000027018700B400BA
:0C0CE0007401E500C300D7000D0A0000FD
:107E0000112484B714BE81FFF0D085E080938100F7
:107E100082E08093C00088E18093C10086E0809377
:107E2000C20080E18093C4008EE0C9D0259A86E02C
:107E300020E33CEF91E0309385002093840096BBD3
:107E4000B09BFECF1D9AA8958150A9F7CC24DD24C4
:107E500088248394B5E0AB2EA1E19A2EF3E0BF2EE7
:107E6000A2D0813461F49FD0082FAFD0023811F036
:107E7000013811F484E001C083E08DD089C08234E0
:107E800011F484E103C0853419F485E0A6D080C0E4
:107E9000853579F488D0E82EFF2485D0082F10E0AE
:107EA000102F00270E291F29000F111F8ED06801E7
:107EB0006FC0863521F484E090D080E0DECF843638
:107EC00009F040C070D06FD0082F6DD080E0C81688
:107ED00080E7D80618F4F601B7BEE895C0E0D1E017
:107EE00062D089930C17E1F7F0E0CF16F0E7DF06D8
:107EF00018F0F601B7BEE89568D007B600FCFDCFD4
:107F0000A601A0E0B1E02C9130E011968C91119780
:107F100090E0982F8827822B932B1296FA010C0160
:107F200087BEE89511244E5F5F4FF1E0A038BF0790
:107F300051F7F601A7BEE89507B600FCFDCF97BE46
:107F4000E89526C08437B1F42ED02DD0F82E2BD052
:107F50003CD0F601EF2C8F010F5F1F4F84911BD097
:107F6000EA94F801C1F70894C11CD11CFA94CF0C13
:107F7000D11C0EC0853739F428D08EE10CD085E9AC
:107F80000AD08FE07ACF813511F488E018D01DD067
:107F900080E101D065CF982F8091C00085FFFCCF94
:107FA0009093C60008958091C00087FFFCCF809118
:107FB000C00084FD01C0A8958091C6000895E0E648
:107FC000F0E098E1908380830895EDDF803219F02E
:107FD00088E0F5DFFFCF84E1DECF1F93182FE3DFCA
:107FE0001150E9F7F2DF1F91089580E0E8DFEE27F6
:047FF000FF270994CA
:027FFE00040479
:00000001FF
