:020000040000FA
:100000000C945E000C9486000C9486000C94860080
:100010000C9486000C9486000C9486000C94860048
:100020000C9486000C9486000C9486000C94860038
:100030000C9486000C9486000C9486000C94860028
:100040000C94D1020C9486000C949F020C947902BB
:100050000C9486000C9486000C9486000C94860008
:100060000C9486000C948600000000080002010039
:100070000003040700000000000000000000000072
:10008000250028002B0000000000240027002A0083
:10009000040404040404040402020202020203032E
:1000A0000303030301020408102040800102040836
:1000B00010200102040810201B03E00411241FBEBD
:1000C000CFEFD8E0DEBFCDBF21E0AAE3B1E001C0B1
:1000D0001D92AE3EB207E1F711E0A0E0B1E0EEE71D
:1000E000FEE002C005900D92AA33B107D9F710E0E7
:1000F000CDE5D0E004C02197FE010E943A05CC3541
:10010000D107C9F70E94A6030C9432070C94000093
:10011000AF92BF92CF92DF92EF92FF920F931F9315
:10012000CF93DF936C017B018B01040F151FEB0153
:100130005E01AE18BF08C017D10759F06991D6010A
:10014000ED91FC910190F081E02DC6010995892B7C
:1001500079F7C501DF91CF911F910F91FF90EF903B
:10016000DF90CF90BF90AF900895FC01538D448DE8
:10017000252F30E0842F90E0821B930B541710F052
:10018000CF96089501970895FC01918D828D98175F
:1001900061F0A28DAE0FBF2FB11D5D968C91928D37
:1001A0009F5F9F73928F90E008958FEF9FEF089568
:1001B000FC01918D828D981731F0828DE80FF11D31
:1001C000858D90E008958FEF9FEF08952FB7F894F5
:1001D0008091430190914401A0914501B091460165
:1001E0002FBF80934F0190935001A0935101B09382
:1001F000520187E491E00E94D80097FF26C02FB7F4
:10020000F8948091430190914401A0914501B091EF
:1002100046012FBF40914F01509150016091510113
:1002200070915201841B950BA60BB70B40914B01AB
:1002300050914C0160914D0170914E0184179507CA
:10024000A607B707B0F28FEF9FEF0895FC01918DDD
:10025000228D892F90E0805C9F4F821B91098F73C4
:100260009927089587E491E00E94260121E0892BD7
:1002700009F420E0822F089580E090E0892B29F096
:100280000E94320181110C9400000895FC01A48D9C
:10029000A80FB92FB11DA35ABF4F2C91848D90E0A8
:1002A00001968F739927848FA689B7892C93A0898B
:1002B000B1898C91837080648C93938D848D981315
:1002C00006C00288F389E02D80818F7D80830895A8
:1002D000EF92FF920F931F93CF93DF93EC0181E096
:1002E000888F9B8D8C8D98131AC0E889F98980813D
:1002F00085FF15C09FB7F894EE89FF896083E88970
:10030000F98980818370806480839FBF81E090E061
:10031000DF91CF911F910F91FF90EF900895F62EEE
:100320000B8D10E00F5F1F4F0F731127E02E8C8D88
:100330008E110CC00FB607FCFACFE889F9898081CD
:1003400085FFF5CFCE010E944601F1CFEB8DEC0F7A
:10035000FD2FF11DE35AFF4FF0829FB7F8940B8FEA
:10036000EA89FB8980818062CFCFCF93DF93EC0154
:10037000888D8823B9F0AA89BB89E889F9898C918D
:1003800085FD03C0808186FD0DC00FB607FCF7CF49
:100390008C9185FFF2CF808185FFEDCFCE010E9449
:1003A0004601E9CFDF91CF91089590E0FC01E85933
:1003B000FF4F2491FC01EC55FF4F3491FC01E057B5
:1003C000FF4FE491EE23C9F0222339F0233001F1ED
:1003D000A8F4213019F1223029F1F0E0EE0FFF1FCF
:1003E000E458FF4FA591B4918FB7F894EC91611147
:1003F00026C030953E233C938FBF08952730A9F047
:100400002830C9F0243049F7809180008F7D03C0E7
:10041000809180008F7780938000DFCF84B58F77C5
:1004200084BDDBCF84B58F7DFBCF8091B0008F770B
:100430008093B000D2CF8091B0008F7DF9CF3E2B5A
:10044000DACF3FB7F89480913B0190913C01A091A5
:100450003D01B0913E0126B5A89B05C02F3F19F084
:100460000196A11DB11D3FBFBA2FA92F982F882734
:10047000BC01CD01620F711D811D911D42E0660F0F
:10048000771F881F991F4A95D1F708958F929F92E1
:10049000AF92BF92CF92DF92EF92FF926B017C01FD
:1004A0000E9421024B015C01C114D104E104F1045A
:1004B000B9F00E942102681979098A099B09683EEE
:1004C00073408105910580F321E0C21AD108E1084B
:1004D000F10888EE880E83E0981EA11CB11CE4CFC1
:1004E000FF90EF90DF90CF90BF90AF909F908F9054
:1004F00008951F920F920FB60F9211242F933F93DE
:100500004F935F936F937F938F939F93AF93BF931B
:10051000EF93FF9387E491E00E944601FF91EF91F2
:10052000BF91AF919F918F917F916F915F914F910B
:100530003F912F910F900FBE0F901F9018951F9213
:100540000F920FB60F9211242F938F939F93EF93D7
:10055000FF93E0915701F09158018081E0915D0196
:10056000F0915E0182FD1BC09081809160018F5FE0
:100570008F7320916101821741F0E0916001F0E0FA
:10058000E95BFE4F958F80936001FF91EF919F9102
:100590008F912F910F900FBE0F901F901895808113
:1005A000F4CF1F920F920FB60F9211242F933F9307
:1005B0008F939F93AF93BF93809143019091440198
:1005C000A0914501B091460130913A0123E0230FFB
:1005D0002D3758F50196A11DB11D20933A01809346
:1005E000430190934401A0934501B093460180914B
:1005F0003B0190913C01A0913D01B0913E010196DB
:10060000A11DB11D80933B0190933C01A0933D013E
:10061000B0933E01BF91AF919F918F913F912F91E8
:100620000F900FBE0F901F90189526E8230F02968B
:10063000A11DB11DD2CF10924A011092490188EE3E
:1006400093E0A0E0B0E080934B0190934C01A09325
:100650004D01B0934E018AE091E090934801809360
:10066000470185EC90E0909354018093530184EC12
:1006700090E0909356018093550180EC90E0909328
:1006800058018093570181EC90E090935A01809338
:10069000590182EC90E090935C0180935B0186ECC1
:1006A00090E090935E0180935D0110926001109242
:1006B000610110926201109263011092E5011092A3
:1006C000E4011092E7011092E6011092E901109204
:1006D000E8016EE170E090E080E00E94650600971E
:1006E00001F19093E5018093E4012DE130E0309336
:1006F000E7012093E6012091E8013091E901232BE5
:1007000011F4FC0110828DE190E09093E901809357
:10071000E80168E171E08091E4019091E5010C94B9
:100720002B078091E4019091E501009711F00E9460
:10073000DC051092E5011092E4011092E90110929B
:10074000E8011092E7011092E6010895789484B5CB
:10075000826084BD84B5816084BD85B5826085BDBD
:1007600085B5816085BD80916E00816080936E004B
:10077000109281008091810082608093810080913D
:1007800081008160809381008091800081608093EE
:1007900080008091B10084608093B1008091B000AE
:1007A00081608093B00080917A00846080937A00A9
:1007B00080917A00826080937A0080917A008160D3
:1007C00080937A0080917A00806880937A001092FA
:1007D000C100EFEAF0E02491EBE9F0E08491882396
:1007E00099F090E0880F991FFC01EA57FF4FA591FF
:1007F000B491FC01E458FF4F859194918FB7F89420
:10080000EC91E22BEC938FBFE0915701F0915801EE
:1008100082E08083E0915301F09154011082E091D5
:100820005501F09156018FEC808310925F01E091A9
:100830005B01F0915C0186E08083E0915901F091C9
:100840005A01808180618083E0915901F0915A01C1
:10085000808188608083E0915901F0915A01808104
:1008600080688083E0915901F0915A0180818F7DE9
:100870008083C1E0D0E000E010E04091E8015091B9
:10088000E9016091E4017091E50187E491E00E9443
:10089000880042E050E066E371E087E491E00E9466
:1008A000880087E491E00E942601892BD1F30E9401
:1008B000E600FC0197FD74C08D32910521F0C097D0
:1008C0000A9708F065C0C12CD12C7601B12CE1301B
:1008D000F105D9F0ED32F10509F45FC0CF01C09701
:1008E0000A9798F4AAE0B0E0A70196010E94E904F3
:1008F0006F01FF0FEE08FF08C60ED71EE81EF91E97
:1009000080E3C81AD108E108F10887E491E00E9469
:10091000C4000E94E600FC01C0970A97C0F2E130D3
:10092000F105A9F2BB2041F0F094E094D094C0947A
:10093000C11CD11CE11CF11C5601D0924201C09295
:100940004101D0934001C0933F01E0903F01F090FE
:100950004001AE14BF0444F161E08BE00E94D50178
:1009600068EC70E080E090E00E94460260E08BE07E
:100970000E94D50168EC70E080E090E00E944602A1
:100980008FEFE81AF80AF0924001E0923F01DDCFC4
:1009900087E491E00E94C4008ACFBB24B394B5CF12
:1009A000C12CD12C7601C8CF0115110509F465CFF2
:1009B0000E943201882309F460CF0E9400005DCFBD
:1009C0008091E4019091E501009711F00C94DC0511
:1009D00008950E942B05A59F900DB49F900DA49F94
:1009E000800D911D112408952F923F924F925F9296
:1009F0006F927F928F929F92AF92BF92CF92DF922F
:100A0000EF92FF920F931F93CF93DF93CDB7DEB793
:100A1000CA1BDB0B0FB6F894DEBF0FBECDBF099427
:100A20002A88398848885F846E847D848C849B847E
:100A3000AA84B984C884DF80EE80FD800C811B818C
:100A4000AA81B981CE0FD11D0FB6F894DEBF0FBEBB
:100A5000CDBFED010895A29FB001B39FC001A39F38
:100A6000700D811D1124911DB29F700D811D1124E7
:100A7000911D0895EE0FFF1F0590F491E02D09944C
:100A80000F931F93CF93DF938230910510F482E090
:100A900090E0E091EC01F091ED0130E020E0B0E079
:100AA000A0E0309799F42115310509F44AC0281BBC
:100AB000390B24303105D8F58A819B816115710588
:100AC00089F1FB0193838283FE0111C04081518132
:100AD0000281138148175907E0F04817590799F424
:100AE000109761F012960C93129713961C933296FE
:100AF000CF01DF91CF911F910F9108950093EC01E9
:100B00001093ED01F4CF2115310551F04217530731
:100B100038F0A901DB019A01BD01DF01F801C1CF65
:100B2000EF01F9CF9093ED018093EC01CDCFFE0161
:100B3000E20FF31F81939193225031093983288367
:100B4000D7CF2091EA013091EB01232B41F4209182
:100B50000201309103013093EB012093EA012091CF
:100B60000001309101012115310541F42DB73EB747
:100B70004091040150910501241B350BE091EA01DD
:100B8000F091EB01E217F307A0F42E1B3F0B28179F
:100B9000390778F0AC014E5F5F4F2417350748F0F6
:100BA0004E0F5F1F5093EB014093EA0181939193A5
:100BB0009FCFF0E0E0E09CCFCF93DF930097E9F088
:100BC000FC01329713821282A091EC01B091ED01E9
:100BD000ED0130E020E01097A1F420813181820FF7
:100BE000931F2091EA013091EB012817390709F092
:100BF00061C0F093EB01E093EA01DF91CF9108959A
:100C0000EA01CE17DF07E8F54A815B819E014115B5
:100C10005105B1F7E901FB83EA8349915991C40F6A
:100C2000D51FEC17FD0761F4808191810296840F36
:100C3000951FE90199838883828193819B838A83AD
:100C4000F0E0E0E012968D919C9113970097B9F532
:100C50002D913C911197CD010296820F931F209107
:100C6000EA013091EB012817390739F6309751F531
:100C70001092ED011092EC01B093EB01A093EA0108
:100C8000BCCFD383C28340815181840F951FC81785
:100C9000D90761F44E5F5F4F88819981480F591FD2
:100CA000518340838A819B819383828321153105FF
:100CB00009F0B0CFF093ED01E093EC019ECFFD0180
:100CC000DC01C0CF13821282D7CFB0E0A0E0EBE608
:100CD000F6E00C94F6048C01009751F4CB010E94CD
:100CE00040058C01C801CDB7DEB7E0E10C941205D8
:100CF000FC01E60FF71F9C0122503109E217F307B0
:100D000008F49DC0D901CD91DC911197C617D70782
:100D100098F0C530D10530F3CE01049786179707B8
:100D200008F3C61BD70B2297C193D1936D937C9385
:100D3000CF010E94DC05D6CF5B01AC1ABD0A4C0185
:100D40008C0E9D1EA091EC01B091ED01512C412C17
:100D5000F12CE12C109731F58091EA019091EB0193
:100D60008815990509F05CC04616570608F058C06A
:100D70008091000190910101009741F48DB79EB7D9
:100D80004091040150910501841B950BE817F90768
:100D900008F055C0F093EB01E093EA01F90171838B
:100DA0006083A0CF8D919C91119712966C901297B1
:100DB00013967C901397A815B90559F56C0142E07C
:100DC000C40ED11CCA14DB0420F1AC014A195B0922
:100DD000DA011296159780F0628273825183408304
:100DE000D9016D937C93E114F10471F0D70113964E
:100DF000FC93EE93129776CF22968C0F9D1FF901EC
:100E000091838083F301EFCFF093ED01E093EC0148
:100E100069CF4816590608F42C017D01D3019ACFF9
:100E2000CB010E9440057C01009749F0AE01B8015A
:100E30000E942207C8010E94DC05870153CF10E001
:100E400000E050CFFB01DC0102C001900D92415047
:100E50005040D8F70895FB01DC0101900D9200206D
:100E6000E1F7089510E0CDE5D0E004C0FE010E9456
:100E70003A052196CE35D107C9F7F894FFCF000087
:100E8000EE0180000000000068018800B500B50197
:100E90002601C400D800486F77204D616E7920424A
:100EA0006C696E6B7320446F20596F752057616EAB
:080EB000743A20000D0A000055
:107E0000112484B714BE81FFF0D085E080938100F7
:107E100082E08093C00088E18093C10086E0809377
:107E2000C20080E18093C4008EE0C9D0259A86E02C
:107E300020E33CEF91E0309385002093840096BBD3
:107E4000B09BFECF1D9AA8958150A9F7CC24DD24C4
:107E500088248394B5E0AB2EA1E19A2EF3E0BF2EE7
:107E6000A2D0813461F49FD0082FAFD0023811F036
:107E7000013811F484E001C083E08DD089C08234E0
:107E800011F484E103C0853419F485E0A6D080C0E4
:107E9000853579F488D0E82EFF2485D0082F10E0AE
:107EA000102F00270E291F29000F111F8ED06801E7
:107EB0006FC0863521F484E090D080E0DECF843638
:107EC00009F040C070D06FD0082F6DD080E0C81688
:107ED00080E7D80618F4F601B7BEE895C0E0D1E017
:107EE00062D089930C17E1F7F0E0CF16F0E7DF06D8
:107EF00018F0F601B7BEE89568D007B600FCFDCFD4
:107F0000A601A0E0B1E02C9130E011968C91119780
:107F100090E0982F8827822B932B1296FA010C0160
:107F200087BEE89511244E5F5F4FF1E0A038BF0790
:107F300051F7F601A7BEE89507B600FCFDCF97BE46
:107F4000E89526C08437B1F42ED02DD0F82E2BD052
:107F50003CD0F601EF2C8F010F5F1F4F84911BD097
:107F6000EA94F801C1F70894C11CD11CFA94CF0C13
:107F7000D11C0EC0853739F428D08EE10CD085E9AC
:107F80000AD08FE07ACF813511F488E018D01DD067
:107F900080E101D065CF982F8091C00085FFFCCF94
:107FA0009093C60008958091C00087FFFCCF809118
:107FB000C00084FD01C0A8958091C6000895E0E648
:107FC000F0E098E1908380830895EDDF803219F02E
:107FD00088E0F5DFFFCF84E1DECF1F93182FE3DFCA
:107FE0001150E9F7F2DF1F91089580E0E8DFEE27F6
:047FF000FF270994CA
:027FFE00040479
:00000001FF
