:100000000C945D000C9485000C9485000C94850084
:100010000C9485000C9485000C9485000C9485004C
:100020000C9485000C9485000C9485000C94290395
:100030000C9485000C9485000C9485000C9485002C
:100040000C94DF020C9485000C94AD020C94870292
:100050000C9485000C9485000C9485000C9485000C
:100060000C9485000C9485000000000024002700FB
:100070002A0000000000250028002B0004040404CE
:100080000404040402020202020203030303030342
:10009000010204081020408001020408102001021F
:1000A00004081020000000080002010000030407FB
:1000B0000000000000000000E50311241FBECFEF88
:1000C000D8E0DEBFCDBF11E0A0E0B1E0E6E2F2E1B2
:1000D00002C005900D92A233B107D9F722E0A2E346
:1000E000B1E001C01D92A730B207E1F710E0CDE505
:1000F000D0E004C02197FE010E940B09CC35D10746
:10010000C9F70E9442040C9411090C940000AF92AC
:10011000BF92CF92DF92EF92FF920F931F93CF93F4
:10012000DF936C017B018B01040F151FEB015E0156
:10013000AE18BF08C017D10759F06991D601ED91EB
:10014000FC910190F081E02DC6010995892B79F78A
:10015000C501DF91CF911F910F91FF90EF90DF903C
:10016000CF90BF90AF900895FC01538D448D252F03
:1001700030E0842F90E0821B930B541710F0CF9641
:10018000089501970895FC01918D828D981761F073
:10019000A28DAE0FBF2FB11D5D968C91928D9F5F8A
:1001A0009F73928F90E008958FEF9FEF0895FC0169
:1001B000918D828D981731F0828DE80FF11D858D1C
:1001C00090E008958FEF9FEF0895FC01918D228DAF
:1001D000892F90E0805C9F4F821B91098F73992734
:1001E000089582E491E00E94E50021E0892B09F462
:1001F00020E0822F089580E090E0892B29F00E9472
:10020000F10081110C9400000895FC01A48DA80F49
:10021000B92FB11DA35ABF4F2C91848D90E0019648
:100220008F739927848FA689B7892C93A089B18968
:100230008C91837080648C93938D848D981306C009
:100240000288F389E02D80818F7D80830895EF926D
:10025000FF920F931F93CF93DF93EC0181E0888F80
:100260009B8D8C8D98131AC0E889F989808185FF50
:1002700015C09FB7F894EE89FF896083E889F989F2
:1002800080818370806480839FBF81E090E0DF91F4
:10029000CF911F910F91FF90EF900895F62E0B8D47
:1002A00010E00F5F1F4F0F731127E02E8C8D8E1102
:1002B0000CC00FB607FCFACFE889F989808185FF69
:1002C000F5CFCE010E940501F1CFEB8DEC0FFD2F94
:1002D000F11DE35AFF4FF0829FB7F8940B8FEA8924
:1002E000FB8980818062CFCFCF93DF93EC01888D33
:1002F0008823B9F0AA89BB89E889F9898C9185FDA1
:1003000003C0808186FD0DC00FB607FCF7CF8C912E
:1003100085FFF2CF808185FFEDCFCE010E940501E0
:10032000E9CFDF91CF91089590E0FC01EC55FF4FAC
:100330002491FC01E057FF4F3491FC01E458FF4F3A
:10034000E491EE23C9F0222339F0233001F1A8F41F
:10035000213019F1223029F1F0E0EE0FFF1FEE58A5
:10036000FF4FA591B4918FB7F894EC91611126C01D
:1003700030953E233C938FBF08952730A9F0283055
:10038000C9F0243049F7809180008F7D03C08091AF
:1003900080008F7780938000DFCF84B58F7784BD16
:1003A000DBCF84B58F7DFBCF8091B0008F778093BA
:1003B000B000D2CF8091B0008F7DF9CF3E2BDACF45
:1003C000CF93DF9390E0FC01E057FF4F24918458D6
:1003D0009F4FFC0184918823D1F090E0880F991FF2
:1003E000FC01E859FF4FA591B491FC01EE58FF4F75
:1003F000C591D49161110EC09FB7F8948C91E22FF2
:10040000E0958E238C932881E223E8839FBFDF91C0
:10041000CF9108958FB7F894EC91E22BEC938FBFB6
:10042000F6CF3FB7F8948091380190913901A091AF
:100430003A01B0913B0126B5A89B05C02F3F19F0AA
:100440000196A11DB11D3FBFBA2FA92F982F882754
:10045000BC01CD01620F711D811D911D42E0660F2F
:10046000771F881F991F4A95D1F70895FC010190C5
:100470000020E9F73197AF01481B590BBC0182E41A
:1004800091E00C9487008F929F92AF92BF920F934E
:100490001F93CF93DF93CDB7DEB7A1970FB6F89434
:1004A000DEBF0FBECDBF19A2423008F44AE08E0174
:1004B0000F5D1F4F842E912CB12CA12CA50194010E
:1004C0000E94FD06E62FB901CA01EA30F4F4E05DAE
:1004D000D801EE938D01232B242B252B79F790E067
:1004E00080E0109719F0CD010E943602A1960FB658
:1004F000F894DEBF0FBECDBFDF91CF911F910F915A
:10050000BF90AF909F908F900895E95CE1CF1F92CC
:100510000F920FB60F9211242F933F934F935F9337
:100520006F937F938F939F93AF93BF93EF93FF93BB
:1005300082E491E00E940501FF91EF91BF91AF919C
:100540009F918F917F916F915F914F913F912F91EB
:100550000F900FBE0F901F9018951F920F920FB61D
:100560000F9211242F938F939F93EF93FF93E0911A
:100570005201F09153018081E0915801F0915901AD
:1005800082FD1BC0908180915B018F5F8F732091F2
:100590005C01821741F0E0915B01F0E0EE5BFE4F01
:1005A000958F80935B01FF91EF919F918F912F9198
:1005B0000F900FBE0F901F9018958081F4CF1F925F
:1005C0000F920FB60F9211242F933F938F939F9307
:1005D000AF93BF938091340190913501A091360182
:1005E000B09137013091330123E0230F2D3758F5B7
:1005F0000196A11DB11D2093330180933401909386
:100600003501A0933601B093370180913801909164
:100610003901A0913A01B0913B010196A11DB11D94
:100620008093380190933901A0933A01B0933B0134
:10063000BF91AF919F918F913F912F910F900FBEDE
:100640000F901F90189526E8230F0296A11DB11D4B
:10065000D2CF1F920F920FB60F9211242F933F9378
:100660004F935F936F937F938F939F93AF93BF93BA
:10067000CF93DF93EF93FF9380913201C0910302F8
:10068000D0E087FF24C010928500109284008091F2
:1006900032018F5F8093320180913201082E000C6D
:1006A000990B8C179D0724F4809132018C30C4F192
:1006B0008091840090918500049680349C4908F4D0
:1006C0007AC08091840090918500049676C08091D4
:1006D0003201082E000C990B8C179D07C4F6E0918F
:1006E00032018E2FEE0F990BFC01EE0FFF1FE80F6A
:1006F000F91FE152FE4F808186FFC9CFE0913201A0
:100700008E2FEE0F990BFC01EE0FFF1FE80FF91F64
:10071000E152FE4F808160E08F730E949401B7CF59
:100720002091840030918500E09132018E2FEE0FF0
:10073000990BFC01EE0FFF1FE80FF91FE152FE4F6E
:1007400081819281820F931F90938900809388000A
:10075000E09132018E2FEE0F990BFC01EE0FFF1F7F
:10076000E80FF91FE152FE4F808186FF11C0E09132
:1007700032018E2FEE0F990BFC01EE0FFF1FE80FD9
:10078000F91FE152FE4F808161E08F730E94940156
:10079000FF91EF91DF91CF91BF91AF919F918F9199
:1007A0007F916F915F914F913F912F910F900FBE6D
:1007B0000F901F90189580E49CE990938900809396
:1007C00088008FEF80933201E3CF109245011092A1
:1007D000440188EE93E0A0E0B0E08093460190935E
:1007E0004701A0934801B093490184E091E09093C0
:1007F00043018093420185EC90E090934F018093F8
:100800004E0184EC90E0909351018093500180EC74
:1008100090E0909353018093520181EC90E090938B
:1008200055018093540182EC90E09093570180939E
:10083000560186EC90E090935901809358011092F4
:100840005B0110925C0110925D0110925E0180913B
:1008500003028C3098F491E0980F909303028093F8
:10086000040290E0FC01EE0FFF1FE80FF91FE152B8
:10087000FE4F88EB9BE09283818308958FEF8093F6
:1008800004020895789484B5826084BD84B5816043
:1008900084BD85B5826085BD85B5816085BD80914B
:1008A0006E00816080936E001092810080918100C3
:1008B00082608093810080918100816080938100BB
:1008C000809180008160809380008091B10084607D
:1008D0008093B1008091B00081608093B0008091DE
:1008E0007A00846080937A0080917A00826080939D
:1008F0007A0080917A00816080937A0080917A00FA
:10090000806880937A001092C100E0915201F091CA
:10091000530182E08083E0914E01F0914F011082FB
:10092000E0915001F09151018FEC808310925A01B7
:10093000E0915601F091570186E08083E0915401E7
:10094000F0915501808180618083E0915401F091A4
:100950005501808188608083E0915401F0915501B8
:10096000808180688083E0915401F09155018081FD
:100970008F7D808361E089E00E94E00160E08EE08D
:100980000E94E001809104028C3008F051C061E0C7
:1009900089E00E94E00180910402282F30E0F901F3
:1009A000EE0FFF1FE20FF31FE152FE4F9081907C8C
:1009B0009960908310920502109206022CE0622F3B
:1009C0000E94FF08829FB001112430E020E0AB01BB
:1009D000420F531FFA01EE0FFF1FE40FF51FE15204
:1009E000FE4F908196FD16C02F5F3F4F2C30310592
:1009F00071F781110FC01092800082E08093810016
:100A00001092850010928400B19A80916F008260EC
:100A100080936F00E09104028E2F90E0FC01EE0FB6
:100A2000FF1FE80FF91FE152FE4F80818064808331
:100A300008E810E0C8E5D2E0B0E02B2EB0E03B2E95
:100A400020E420937C0080917A00806480937A0077
:100A500080917A0086FDFCCF90917800809179009A
:100A6000892798278927909341018093400182E14B
:100A700091E00E943602C0904001D09041010D2CBF
:100A8000000CEE08FF084AE0C701B601F7FE0DC0F2
:100A90006DE282E491E00E94270166277727CB016F
:100AA0006C197D098E099F094AE00E94430283E286
:100AB00091E00E9436020E9411024B015C01A8ECF9
:100AC000CA2ED12CE12CF12C0E941102681979094F
:100AD0008A099B09683E734081059105A8F341E0AE
:100AE000C41AD108E108F10858EE850E53E0951EAE
:100AF000A11CB11CC114D104E104F10429F76091D7
:100B0000400170914101072E000C880B990B0E9447
:100B1000D8072FE832EC45E75EEB0E948D0820E015
:100B200030E048E553E40E942F076B017C014B0144
:100B30005C01C0923C01D0923D01E0923E01F092F6
:100B40003F01AC019B010E94FA08882309F48FC081
:100B500086E291E00E94360283E291E00E94360232
:100B600060913C0170913D0180913E0190913F0167
:100B70000E94A0076B01603242E07407CCF520911F
:100B800005026801C21AD10827FDD394CC0CDD1CE4
:100B9000CC0CDD1C0D2C000CEE08FF082091060289
:100BA000AE01421B510927FD53959A01220F331FB5
:100BB000220F331F032E000C440B550B2C193D093B
:100BC0004E095F09DB01653B710514F0A4EBB0E051
:100BD000B7FF02C0B0E0A0E00E94F50624EB30E0D1
:100BE00040E050E00E94CB06C20ED31EE41EF51E6C
:100BF000209104022C3078F580910502A801481B51
:100C0000510987FD5395CA01880F991F880F991FB5
:100C1000C816D90684F080910602AE01481B51091E
:100C200087FD5395CA01880F991F880F991FC81611
:100C3000D9060CF4C6010297880F991F4FB7F89494
:100C400030E0F901EE0FFF1FE20FF31FE152FE4FFC
:100C5000928381834FBF2114310409F4F1CE0E94A5
:100C6000F100882309F4ECCE0E940000E9CE2601B1
:100C70003701E89477F82FEF3FEF4FE75FE7C301C5
:100C8000B2010E94FA0881110DC02FEF3FEF4FE72C
:100C90005FE7C301B2010E949B0718161CF48AE2A9
:100CA00091E058CF2FEF3FEF4FE75FE4C701B60168
:100CB0000E94880818161CF48EE291E04BCF2FEFAB
:100CC0003FEF4FE75FECC701B6010E949B0787FD2E
:100CD000F3CF20E030E0A901C701B6010E949B07D5
:100CE00087FF0BC06DE282E491E00E94270146017C
:100CF0005701B7FAB094B7F8B0942AE037ED43EA59
:100D00005BE3C501B4010E942F074B015C010E9407
:100D1000A7076B017C010E94D6079B01AC01C501AE
:100D2000B4010E942E074B015C014AE0C701B601E5
:100D30000E9443026EE282E491E00E94270120E0DB
:100D400030E040E251E4C501B4010E948D084B013E
:100D50005C010E94A7076B01F12CE12C4AE0C7015E
:100D6000B6010E944302C701B6010E94D6079B014B
:100D7000AC01C501B4010E942E0720E030E040E242
:100D800051E40E948D080E94A70790E080E04AE0AD
:100D90000E944302E1CE052E97FB1EF400940E94B0
:100DA000E20657FD07D00E94FD0607FC03D04EF473
:100DB0000C94E20650954095309521953F4F4F4F4A
:100DC0005F4F089590958095709561957F4F8F4FF7
:100DD0009F4F08950E941F07A59F900DB49F900DEF
:100DE000A49F800D911D11240895B7FF0C94EA066D
:100DF0000E94EA06821B930B0895A1E21A2EAA1BF9
:100E0000BB1BFD010DC0AA1FBB1FEE1FFF1FA217BA
:100E1000B307E407F50720F0A21BB30BE40BF50BB7
:100E2000661F771F881F991F1A9469F76095709540
:100E3000809590959B01AC01BD01CF010895A29FC3
:100E4000B001B39FC001A39F700D811D1124911D9E
:100E5000B29F700D811D1124911D08955058BB271C
:100E6000AA270E9446070C944E080E94400838F0BA
:100E70000E94470820F039F49F3F19F426F40C949F
:100E80003D080EF4E095E7FB0C943708E92F0E942B
:100E90005F0858F3BA17620773078407950720F0B5
:100EA00079F4A6F50C9481080EF4E0950B2EBA2F78
:100EB000A02D0B01B90190010C01CA01A001112460
:100EC000FF27591B99F0593F50F4503E68F11A160C
:100ED000F040A22F232F342F4427585FF3CF46959D
:100EE00037952795A795F0405395C9F77EF41F16BF
:100EF000BA0B620B730B840BBAF09150A1F0FF0F89
:100F0000BB1F661F771F881FC2F70EC0BA0F621F74
:100F1000731F841F48F4879577956795B795F79564
:100F20009E3F08F0B0CF9395880F08F09927EE0FF9
:100F30009795879508950E94130808F481E0089515
:100F40000E94A7076894B1110C94820808950E942A
:100F5000670888F09F5798F0B92F9927B751B0F0DC
:100F6000E1F0660F771F881F991F1AF0BA95C9F72D
:100F700014C0B13091F00E948108B1E008950C9442
:100F80008108672F782F8827B85F39F0B93FCCF3F5
:100F9000869577956795B395D9F73EF490958095AA
:100FA000709561957F4F8F4F9F4F0895E89409C0CA
:100FB00097FB3EF490958095709561957F4F8F4F8C
:100FC0009F4F9923A9F0F92F96E9BB279395F695A2
:100FD000879577956795B795F111F8CFFAF4BB0F20
:100FE00011F460FF1BC06F5F7F4F8F4F9F4F16C084
:100FF000882311F096E911C0772321F09EE8872F0E
:10100000762F05C0662371F096E8862F70E060E0C9
:101010002AF09A95660F771F881FDAF7880F969542
:10102000879597F90895990F0008550FAA0BE0E8E6
:10103000FEEF16161706E807F907C0F0121613069A
:10104000E407F50798F0621B730B840B950B39F4DA
:101050000A2661F0232B242B252B21F408950A2640
:1010600009F4A140A6958FEF811D811D089597F980
:101070009F6780E870E060E008959FEF80EC08953E
:1010800000240A9416161706180609060895002467
:101090000A9412161306140605060895092E0394E1
:1010A000000C11F4882352F0BB0F40F4BF2B11F455
:1010B00060FF04C06F5F7F4F8F4F9F4F089557FDB4
:1010C0009058440F551F59F05F3F71F04795880FB6
:1010D00097FB991F61F09F3F79F08795089512164D
:1010E00013061406551FF2CF4695F1DF08C01616F9
:1010F00017061806991FF1CF8695710561050894AA
:101100000895E894BB2766277727CB0197F90895C0
:101110000E94130808F48FEF08950E94A0080C9411
:101120004E080E94400838F00E94470820F095239E
:1011300011F00C9437080C943D0811240C9482088B
:101140000E945F0870F3959FC1F3950F50E0551F03
:10115000629FF001729FBB27F00DB11D639FAA270C
:10116000F00DB11DAA1F649F6627B00DA11D661F5B
:10117000829F2227B00DA11D621F739FB00DA11D7C
:10118000621F839FA00D611D221F749F3327A00D36
:10119000611D231F849F600D211D822F762F6A2FD2
:1011A00011249F5750409AF0F1F088234AF0EE0F37
:1011B000FF1FBB1F661F771F881F91505040A9F764
:1011C0009E3F510580F00C9437080C9482085F3FD5
:1011D000E4F3983ED4F3869577956795B795F795A0
:1011E000E7959F5FC1F7FE2B880F911D9695879518
:1011F00097F908950E941308880B990B0895991B7D
:1012000079E004C0991F961708F0961B881F7A95FD
:10121000C9F780950895EE0FFF1F0590F491E02D1A
:061220000994F894FFCFD1
:101226000000000027018700B4007401E500C30038
:10123600D7004D79204C44522056616C7565206963
:101246007320000D0A006E616E00696E66006F768F
:02125600660030
:00000001FF
