:100000000C945E000C9486000C9486000C94860080
:100010000C9486000C9486000C9486000C94860048
:100020000C9486000C9486000C9486000C94860038
:100030000C9486000C9486000C9486000C94860028
:100040000C949C020C9486000C940C030C94E60215
:100050000C9486000C9486000C9486000C94860008
:100060000C9486000C948600000000080002010039
:100070000003040700000000000000000000000072
:10008000250028002B0000000000240027002A0083
:10009000040404040404040402020202020203032E
:1000A0000303030301020408102040800102040836
:1000B00010200102040810203E03520511241FBE27
:1000C000CFEFD8E0DEBFCDBF21E0A4E4B1E001C0B6
:1000D0001D92A63FB207E1F711E0A0E0B1E0E2E631
:1000E000FFE002C005900D92A434B107D9F710E0EB
:1000F000CDE5D0E004C02197FE010E94AC05CC35CF
:10010000D107C9F70E94C9030C94A4070C940000FE
:1001100090E0FC01EC55FF4F249180579F4FFC016C
:100120008491882399F090E0880F991FFC01EA5789
:10013000FF4FA591B491FC01E458FF4F8591949134
:100140008FB7F894EC91E22BEC938FBF0895AF92A8
:10015000BF92CF92DF92EF92FF920F931F93CF93B4
:10016000DF936C017B018B01040F151FEB015E0116
:10017000AE18BF08C017D10759F06991D601ED91AB
:10018000FC910190F081E02DC6010995892B79F74A
:10019000C501DF91CF911F910F91FF90EF90DF90FC
:1001A000CF90BF90AF900895FC01538D448D252FC3
:1001B00030E0842F90E0821B930B541710F0CF9601
:1001C000089501970895FC01918D828D981761F033
:1001D000A28DAE0FBF2FB11D5D968C91928D9F5F4A
:1001E0009F73928F90E008958FEF9FEF0895FC0129
:1001F000918D828D981731F0828DE80FF11D858DDC
:1002000090E008958FEF9FEF08952FB7F8948091B5
:100210004B0190914C01A0914D01B0914E012FBF27
:100220008093570190935801A0935901B0935A01BC
:100230008FE491E00E94F70097FF26C02FB7F89453
:1002400080914B0190914C01A0914D01B0914E01D4
:100250002FBF409157015091580160915901709101
:100260005A01841B950BA60BB70B4091530150917B
:100270005401609155017091560184179507A607A6
:10028000B707B0F28FEF9FEF0895FC01918D228D9B
:10029000892F90E0805C9F4F821B91098F73992773
:1002A00008958FE491E00E94450121E0892B09F433
:1002B00020E0822F089580E090E0892B29F00E94B1
:1002C000510181110C9400000895FC01A48DA80F28
:1002D000B92FB11DA35ABF4F2C91848D90E0019688
:1002E0008F739927848FA689B7892C93A089B189A8
:1002F0008C91837080648C93938D848D981306C049
:100300000288F389E02D80818F7D80830895EF92AC
:10031000FF920F931F93CF93DF93EC0181E0888FBF
:100320009B8D8C8D98131AC0E889F989808185FF8F
:1003300015C09FB7F894EE89FF896083E889F98931
:1003400080818370806480839FBF81E090E0DF9133
:10035000CF911F910F91FF90EF900895F62E0B8D86
:1003600010E00F5F1F4F0F731127E02E8C8D8E1141
:100370000CC00FB607FCFACFE889F989808185FFA8
:10038000F5CFCE010E946501F1CFEB8DEC0FFD2F73
:10039000F11DE35AFF4FF0829FB7F8940B8FEA8963
:1003A000FB8980818062CFCFCF93DF93EC01888D72
:1003B0008823B9F0AA89BB89E889F9898C9185FDE0
:1003C00003C0808186FD0DC00FB607FCF7CF8C916E
:1003D00085FFF2CF808185FFEDCFCE010E946501C0
:1003E000E9CFDF91CF91089590E0FC01E859FF4FEC
:1003F0002491FC01EC55FF4F3491FC01E057FF4F75
:10040000E491EE23C9F0222339F0233001F1A8F45E
:10041000213019F1223029F1F0E0EE0FFF1FE458EE
:10042000FF4FA591B4918FB7F894EC91611126C05C
:1004300030953E233C938FBF08952730A9F0283094
:10044000C9F0243049F7809180008F7D03C08091EE
:1004500080008F7780938000DFCF84B58F7784BD55
:10046000DBCF84B58F7DFBCF8091B0008F778093F9
:10047000B000D2CF8091B0008F7DF9CF3E2BDACF84
:100480001F93CF93DF93182FEB010E9488002097D2
:1004900039F460E0812FDF91CF911F910C94F4012A
:1004A000CF3FD10511F461E0F5CFE12FF0E0E8593D
:1004B000FF4FE491E33031F140F4E130B1F0E2304C
:1004C000E1F0C038D1057CF7E4CFE73029F1E8301E
:1004D00059F1E430B1F78091800080628093800010
:1004E000D0938B00C0938A0004C084B5806884BD1B
:1004F000C7BDDF91CF911F91089584B5806284BDFF
:10050000C8BDF7CF80918000806880938000D09331
:100510008900C0938800EDCF8091B00080688093FF
:10052000B000C093B300E5CF8091B00080628093AB
:10053000B000C093B400DDCF1F920F920FB60F92A0
:1005400011242F933F938F939F93AF93BF938091E9
:100550004B0190914C01A0914D01B0914E01309111
:100560004A0123E0230F2D3758F50196A11DB11D37
:1005700020934A0180934B0190934C01A0934D012D
:10058000B0934E018091460190914701A09148019E
:10059000B09149010196A11DB11D80934601909330
:1005A0004701A0934801B0934901BF91AF919F913A
:1005B0008F913F912F910F900FBE0F901F90189524
:1005C00026E8230F0296A11DB11DD2CF1F920F92D4
:1005D0000FB60F9211242F933F934F935F936F9316
:1005E0007F938F939F93AF93BF93EF93FF938FE48A
:1005F00091E00E946501FF91EF91BF91AF919F91B2
:100600008F917F916F915F914F913F912F910F90BB
:100610000FBE0F901F9018951F920F920FB60F925A
:1006200011242F938F939F93EF93FF93E0915F019A
:10063000F09160018081E0916501F091660182FD99
:100640001BC09081809168018F5F8F732091690139
:10065000821741F0E0916801F0E0E15BFE4F958F79
:1006600080936801FF91EF919F918F912F910F904F
:100670000FBE0F901F9018958081F4CF10925201F9
:100680001092510188EE93E0A0E0B0E08093530116
:1006900090935401A0935501B09356018AE091E0E4
:1006A0009093500180934F0185EC90E090935C0112
:1006B00080935B0184EC90E090935E0180935D01F8
:1006C00080EC90E09093600180935F0181EC90E07A
:1006D000909362018093610182EC90E090936401B9
:1006E0008093630186EC90E09093660180936501AE
:1006F000109268011092690110926A0110926B01C8
:100700001092ED011092EC011092EF011092EE01A7
:100710001092F1011092F00168E270E090E080E048
:100720000E94D706009701F19093ED018093EC01B0
:1007300027E230E03093EF012093EE012091F001A9
:100740003091F101232B11F4FC01108287E290E03B
:100750009093F1018093F00168E171E08091EC01E8
:100760009091ED010C949D078091EC019091ED0129
:10077000009711F00E944E061092ED011092EC01CC
:100780001092F1011092F0011092EF011092EE011F
:100790000895789484B5826084BD84B5816084BDF9
:1007A00085B5826085BD85B5816085BD80916E000F
:1007B000816080936E001092810080918100826040
:1007C000809381008091810081608093810080917D
:1007D00080008160809380008091B100846080936C
:1007E000B1008091B00081608093B00080917A0068
:1007F000846080937A0080917A00826080937A008E
:1008000080917A00816080937A0080917A0080687C
:1008100080937A001092C100E0915F01F091600135
:1008200082E08083E0915B01F0915C011082E091B5
:100830005D01F0915E018FEC808310926701E09181
:100840006301F091640186E08083E0916101F091A1
:100850006201808180618083E0916101F091620199
:10086000808188608083E0916101F09162018081E4
:1008700080688083E0916101F091620180818F7DC9
:1008800080838BE00E9488008AE00E94880089E0D3
:100890000E948800C0E0D0E04091F0015091F10149
:1008A0006091EC017091ED018FE491E00E94A7004E
:1008B00042E050E060E471E08FE491E00E94A70024
:1008C0008FE491E00E944501892BD1F30E9405013C
:1008D000FC0197FD66C08D32910521F0C0970A9703
:1008E00008F058C0C12CD12C760110E0E130F105A0
:1008F000D9F0ED32F10509F452C0CF01C0970A9743
:1009000098F4AAE0B0E0A70196010E945B056F0190
:10091000FF0FEE08FF08C60ED71EE81EF91E80E383
:10092000C81AD108E108F1088FE491E00E94E300C1
:100930000E940501FC01C0970A97C0F2E130F10561
:10094000A9F2112341F0F094E094D094C094C11C1A
:10095000D11CE11CF11C8601D0924501C0924401DA
:100960000130110511F561E08BE00E94F40160E0B7
:100970008AE00E94F40160E089E00E94F40170E0E6
:1009800060E00630110549F58BE00E9440026FEFF0
:1009900070E02DC08FE491E00E94E30097CF11E05A
:1009A000C3CFC12CD12C7601D6CF0230110531F442
:1009B00060E08BE00E94F40161E0DACF03301105C2
:1009C000E1F460E08BE00E94F40160E08AE00E94C4
:1009D000F40161E089E00E94F40107301105E1F4BF
:1009E0006FEF70E08BE00E94400270E060E08AE010
:1009F0000E9440026FEF70E01EC00430110549F5FF
:100A000060E08BE00E94F40160E08AE00E94F40163
:100A100060E089E00E94F4010830110599F56FEF5C
:100A200070E08BE00E94400265EA70E08AE00E947C
:100A3000400270E060E089E00E944002209709F4E3
:100A40002BCF0E945101882309F426CF0E94000079
:100A500023CF0530110509F092CF6FEF70E08BE0E6
:100A60000E94400264E670E08AE00E94400270E06A
:100A700060E089E00E9440020A301105F9F66FEF4C
:100A800070E082CF09301105B9F766E970E08BE0BC
:100A90000E94400264E170E08AE00E94400268EC3B
:100AA00070E0C9CF8091EC019091ED01009711F0B9
:100AB0000C944E0608950E949D05A59F900DB49F2D
:100AC000900DA49F800D911D112408952F923F92A7
:100AD0004F925F926F927F928F929F92AF92BF924E
:100AE000CF92DF92EF92FF920F931F93CF93DF93FA
:100AF000CDB7DEB7CA1BDB0B0FB6F894DEBF0FBE57
:100B0000CDBF09942A88398848885F846E847D84A3
:100B10008C849B84AA84B984C884DF80EE80FD80A5
:100B20000C811B81AA81B981CE0FD11D0FB6F8941B
:100B3000DEBF0FBECDBFED010895A29FB001B39FF0
:100B4000C001A39F700D811D1124911DB29F700DD6
:100B5000811D1124911D0895EE0FFF1F0590F49142
:100B6000E02D09940F931F93CF93DF93823091056B
:100B700010F482E090E0E091F401F091F50130E0B2
:100B800020E0B0E0A0E0309799F42115310509F498
:100B90004AC0281B390B24303105D8F58A819B8146
:100BA0006115710589F1FB0193838283FE0111C0F8
:100BB000408151810281138148175907E0F048179D
:100BC000590799F4109761F012960C9312971396A7
:100BD0001C933296CF01DF91CF911F910F91089511
:100BE0000093F4011093F501F4CF2115310551F074
:100BF0004217530738F0A901DB019A01BD01DF015B
:100C0000F801C1CFEF01F9CF9093F5018093F40182
:100C1000CDCFFE01E20FF31F819391932250310952
:100C200039832883D7CF2091F2013091F301232B10
:100C300041F420910201309103013093F30120939C
:100C4000F20120910001309101012115310541F49B
:100C50002DB73EB74091040150910501241B350B7F
:100C6000E091F201F091F301E217F307A0F42E1BDB
:100C70003F0B2817390778F0AC014E5F5F4F241700
:100C8000350748F04E0F5F1F5093F3014093F20178
:100C9000819391939FCFF0E0E0E09CCFCF93DF93DF
:100CA0000097E9F0FC01329713821282A091F401BF
:100CB000B091F501ED0130E020E01097A1F4208122
:100CC0003181820F931F2091F2013091F301281797
:100CD000390709F061C0F093F301E093F201DF916D
:100CE000CF910895EA01CE17DF07E8F54A815B81CD
:100CF0009E0141155105B1F7E901FB83EA83499152
:100D00005991C40FD51FEC17FD0761F480819181C3
:100D10000296840F951FE9019983888382819381CC
:100D20009B838A83F0E0E0E012968D919C9113976B
:100D30000097B9F52D913C911197CD010296820F44
:100D4000931F2091F2013091F3012817390739F6EA
:100D5000309751F51092F5011092F401B093F30120
:100D6000A093F201BCCFD383C28340815181840F11
:100D7000951FC817D90761F44E5F5F4F888199812D
:100D8000480F591F518340838A819B8193838283BB
:100D90002115310509F0B0CFF093F501E093F4018E
:100DA0009ECFFD01DC01C0CF13821282D7CFB0E00D
:100DB000A0E0EDEDF6E00C9468058C01009751F48D
:100DC000CB010E94B2058C01C801CDB7DEB7E0E1CE
:100DD0000C948405FC01E60FF71F9C012250310999
:100DE000E217F30708F49DC0D901CD91DC9111976A
:100DF000C617D70798F0C530D10530F3CE01049758
:100E00008617970708F3C61BD70B2297C193D19378
:100E10006D937C93CF010E944E06D6CF5B01AC1A36
:100E2000BD0A4C018C0E9D1EA091F401B091F501FC
:100E3000512C412CF12CE12C109731F58091F201CD
:100E40009091F3018815990509F05CC04616570684
:100E500008F058C08091000190910101009741F481
:100E60008DB79EB74091040150910501841B950BED
:100E7000E817F90708F055C0F093F301E093F20189
:100E8000F90171836083A0CF8D919C911197129687
:100E90006C90129713967C901397A815B90559F585
:100EA0006C0142E0C40ED11CCA14DB0420F1AC0179
:100EB0004A195B09DA011296159780F062827382F3
:100EC00051834083D9016D937C93E114F10471F057
:100ED000D7011396FC93EE93129776CF22968C0F40
:100EE0009D1FF90191838083F301EFCFF093F5010A
:100EF000E093F40169CF4816590608F42C017D01EE
:100F0000D3019ACFCB010E94B2057C01009749F032
:100F1000AE01B8010E949407C8010E944E068701E5
:100F200053CF10E000E050CFFB01DC0102C0019084
:100F30000D9241505040D8F70895FB01DC0101901B
:100F40000D920020E1F7089510E0CDE5D0E004C057
:100F5000FE010E94AC052196CE35D107C9F7F89461
:020F6000FFCFC1
:100F62000000F6018000000000008701A700D40005
:100F7200D4014501E300F700436F6C6F75723F20A7
:100F82002831207265642C203220677265656E2CD0
:100F9200203320626C75652C2034206F6666290030
:040FA2000D0A000034
:00000001FF
