:100000000C9462000C948A000C948A000C948A0070
:100010000C948A000C948A000C948A000C948A0038
:100020000C948A000C948A000C948A000C948A0028
:100030000C948A000C948A000C948A000C948A0018
:100040000C947D030C948A000C944B030C942503B0
:100050000C948A000C948A000C948A000C948A00F8
:100060000C948A000C948A000000000024002700F1
:100070002A0000000000250028002B0000000000DE
:1000800023002600290004040404040404040202DA
:100090000202020203030303030301020408102007
:1000A0004080010204081020010204081020000012
:1000B0000008000201000003040700000000000027
:1000C00000001B0611241FBECFEFD8E0DEBFCDBF5E
:1000D00011E0A0E0B1E0E6E8F0E102C005900D9289
:1000E000A232B107D9F721E0A2E2B1E001C01D922E
:1000F000A03DB207E1F710E0C2E6D0E004C02197CE
:10010000FE010E943B08C136D107C9F70E94C70310
:100110000C9441080C940000AF92BF92CF92DF92F2
:10012000EF92FF920F931F93CF93DF936C017B01AC
:100130008B01040F151FEB015E01AE18BF08C0173D
:10014000D10759F06991D601ED91FC910190F081B0
:10015000E02DC6010995892B79F7C501DF91CF9173
:100160001F910F91FF90EF90DF90CF90BF90AF90D5
:100170000895FC01538D448D252F30E0842F90E0AD
:10018000821B930B541710F0CF9608950197089592
:10019000FC01918D828D981761F0A28DAE0FBF2F5B
:1001A000B11D5D968C91928D9F5F9F73928F90E0B1
:1001B00008958FEF9FEF0895FC01918D828D981720
:1001C00031F0828DE80FF11D858D90E008958FEF5D
:1001D0009FEF0895FC01918D228D892F90E0805C26
:1001E0009F4F821B91098F739927089583E391E0B4
:1001F0000E94EA0021E0892B09F420E0822F089573
:1002000080E090E0892B29F00E94F60081110C9487
:1002100000000895FC01A48DA80FB92FB11DA35AA9
:10022000BF4F2C91848D90E001968F739927848F16
:10023000A689B7892C93A089B1898C918370806439
:100240008C93938D848D981306C00288F389E02DDA
:1002500080818F7D80830895EF92FF920F931F938B
:10026000CF93DF93EC0181E0888F9B8D8C8D981369
:100270001AC0E889F989808185FF15C09FB7F89475
:10028000EE89FF896083E889F989808183708064C1
:1002900080839FBF81E090E0DF91CF911F910F910C
:1002A000FF90EF900895F62E0B8D10E00F5F1F4F1B
:1002B0000F731127E02E8C8D8E110CC00FB607FC2A
:1002C000FACFE889F989808185FFF5CFCE010E94B8
:1002D0000A01F1CFEB8DEC0FFD2FF11DE35AFF4F1B
:1002E000F0829FB7F8940B8FEA89FB898081806246
:1002F000CFCFCF93DF93EC01888D8823B9F0AA8903
:10030000BB89E889F9898C9185FD03C0808186FDD0
:100310000DC00FB607FCF7CF8C9185FFF2CF80811F
:1003200085FFEDCFCE010E940A01E9CFDF91CF9189
:100330000895833081F028F4813099F08230A9F05B
:1003400008958730A9F08830C9F08430B1F48091E5
:1003500080008F7D03C0809180008F778093800024
:10036000089584B58F7784BD089584B58F7DFBCFC4
:100370008091B0008F778093B00008958091B00095
:100380008F7DF9CFCF93DF93282F30E0F901E2552D
:10039000FF4F8491F901E656FF4FD491F901EA57D6
:1003A000FF4FC491CC23A1F081110E949901EC2F41
:1003B000F0E0EE0FFF1FE458FF4FA591B491EC91D0
:1003C000ED2381E090E009F480E0DF91CF91089582
:1003D00080E090E0FACF1F93CF93DF93282F30E097
:1003E000F901E255FF4F8491F901E656FF4FD49190
:1003F000F901EA57FF4FC491CC23A9F0162F8111C0
:100400000E949901EC2FF0E0EE0FFF1FEE58FF4F16
:10041000A591B4918FB7F894EC91111108C0D095C3
:10042000DE23DC938FBFDF91CF911F910895DE2BE8
:10043000F8CFCF93DF9390E0FC01E656FF4F249175
:100440008A579F4FFC0184918823D1F090E0880F58
:10045000991FFC01E859FF4FA591B491FC01EE589A
:10046000FF4FC591D49161110EC09FB7F8948C9144
:10047000E22FE0958E238C932881E223E8839FBFAF
:10048000DF91CF9108958FB7F894EC91E22BEC9324
:100490008FBFF6CF3FB7F894809127019091280144
:1004A000A0912901B0912A0126B5A89B05C02F3F34
:1004B00019F00196A11DB11D3FBFBA2FA92F982F8A
:1004C0008827BC01CD01620F711D811D911D42E085
:1004D000660F771F881F991F4A95D1F708958F924D
:1004E0009F92AF92BF92CF92DF92EF92FF926B01F9
:1004F0007C010E944A024B015C01C114D104E10459
:10050000F104B9F00E944A02681979098A099B0925
:10051000683E73408105910580F321E0C21AD1083D
:10052000E108F10888EE880E83E0981EA11CB11C3A
:10053000E4CFFF90EF90DF90CF90BF90AF909F906F
:100540008F900895FC0101900020E9F73197AF01E9
:10055000481B590BBC0183E391E00C948C008F92F3
:100560009F92AF92BF920F931F93CF93DF93CDB71C
:10057000DEB7A1970FB6F894DEBF0FBECDBF19A2AC
:10058000423008F44AE08E010F5D1F4F842E912CFB
:10059000B12CA12CA50194010E941908E62FB901E4
:1005A000CA01EA30F4F4E05DD801EE938D01232B0B
:1005B000242B252B79F790E080E0109719F0CD01DE
:1005C0000E94A202A1960FB6F894DEBF0FBECDBF67
:1005D000DF91CF911F910F91BF90AF909F908F901F
:1005E0000895E95CE1CFCF92DF92EF92FF92CF9333
:1005F000DF936C01990FEE08FF08F7FE1FC06DE254
:1006000083E391E00E942C01EC0166277727CB0160
:100610006C197D098E099F094AE00E94AF02C80F3C
:10062000D91F82E191E00E94A2028C0F9D1FDF91F1
:10063000CF91FF90EF90DF90CF9008954AE0C701EF
:10064000B6010E94AF02EC01ECCF1F920F920FB6E1
:100650000F9211242F933F934F935F936F937F9348
:100660008F939F93AF93BF93EF93FF9383E391E0B7
:100670000E940A01FF91EF91BF91AF919F918F91DD
:100680007F916F915F914F913F912F910F900FBE8E
:100690000F901F9018951F920F920FB60F92112472
:1006A0002F938F939F93EF93FF93E0914301F091EA
:1006B00044018081E0914901F0914A0182FD1BC013
:1006C000908180914C018F5F8F7320914D01821733
:1006D00041F0E0914C01F0E0ED5CFE4F958F80938E
:1006E0004C01FF91EF919F918F912F910F900FBE31
:1006F0000F901F9018958081F4CF1F920F920FB624
:100700000F9211242F933F938F939F93AF93BF9397
:100710008091230190912401A0912501B09126019F
:100720003091220123E0230F2D3758F50196A11DAA
:10073000B11D209322018093230190932401A09363
:100740002501B09326018091270190912801A09165
:100750002901B0912A010196A11DB11D80932701A5
:1007600090932801A0932901B0932A01BF91AF91E2
:100770009F918F913F912F910F900FBE0F901F90DF
:10078000189526E8230F0296A11DB11DD2CF7894AB
:1007900084B5826084BD84B5816084BD85B5826086
:1007A00085BD85B5816085BD80916E008160809337
:1007B0006E001092810080918100826080938100A0
:1007C00080918100816080938100809180008160B0
:1007D000809380008091B10084608093B10080910B
:1007E000B00081608093B00080917A008460809333
:1007F0007A0080917A00826080937A0080917A00FA
:10080000816080937A0080917A00806880937A007A
:100810001092C10061E08BE00E94190261E087E064
:100820000E94190260E08DE00E94190260E08CE0F5
:100830000E941902E0914301F091440182E080831B
:10084000E0913F01F09140011082E0914101F0916F
:1008500042018FEC808310924B01E0914701F091AF
:10086000480186E08083E0914501F0914601808156
:1008700080618083E0914501F0914601808188602C
:100880008083E0914501F0914601808180688083FA
:10089000E0914501F091460180818F7D808309EBD5
:1008A00010E0C0E0D0E08DE00E94C2017C01909396
:1008B0003201809331018CE00E94C201909330019B
:1008C00080932F01C7010E94F30280912F01909124
:1008D00030010E94F30282E191E00E94A20264E6EC
:1008E00070E080E090E00E946F0280913101909171
:1008F00032010197B1F420E030E04FE752E460911B
:100900002B0170912C0180912D0190912E010E945C
:10091000490660932B0170932C0180932D019093D5
:100920002E0180912F01909130010197B1F420E0C8
:1009300030E04FE752E460912B0170912C018091DF
:100940002D0190912E010E94480660932B01709317
:100950002C0180932D0190932E0120E030E04FE791
:1009600053E460912B0170912C0180912D019091A5
:100970002E010E94A2071816D4F480E090E0AFE7A1
:10098000B3E480932B0190932C01A0932D01B0939D
:100990002E0161E087E00E94EB0164E670E080E0F8
:1009A00090E00E946F0260E087E00E94EB0120E08F
:1009B00030E0A90160912B0170912C0180912D01F3
:1009C00090912E010E94B50687FF16C010922B0150
:1009D00010922C0110922D0110922E0161E087E0FF
:1009E0000E94EB0164E670E080E090E00E946F02FC
:1009F00060E087E00E94EB0160912B0170912C0177
:100A000080912D0190912E010E94BA066B015B012D
:100A100061E08BE00E941902C114D10491F560E0FD
:100A20008BE00E94EB01C0902B01D0902C01E09054
:100A30002D01F0902E01A7019601C701B6010E9479
:100A40001408882309F465C085E191E00E94A202A0
:100A500082E191E00E94A20282E191E00E94A20262
:100A600064E670E080E090E00E946F02209709F455
:100A70001ACF0E94F600882309F415CF0E940000C7
:100A800012CF8FEFC816D10411F461E0C9CFF8017D
:100A90008491833021F148F48130B9F08230D1F073
:100AA000F0E8AF16B1048CF7BACF873011F1883077
:100AB00041F18430A9F780918000806280938000AA
:100AC000D0928B00C0928A00AECF84B5806884BD7E
:100AD000C7BCA9CF84B5806284BDC8BCA4CF8091B7
:100AE0008000806880938000D0928900C092880046
:100AF0009ACF8091B00080688093B000C092B3001C
:100B000092CF8091B00080628093B000C092B40018
:100B10008ACF46015701E894B7F82FEF3FEF4FE730
:100B20005FE7C501B4010E94140881110DC02FEFC9
:100B30003FEF4FE75FE7C501B4010E94B506181605
:100B40001CF489E191E082CF2FEF3FEF4FE75FE4A4
:100B5000C701B6010E94A20718161CF48DE191E0AE
:100B600075CF2FEF3FEF4FE75FECC701B6010E9453
:100B7000B50687FDF3CF20E030E0A901C701B6013B
:100B80000E94B50687FF09C06DE283E391E00E94F1
:100B90002C01F7FAF094F7F8F0942AE037ED43EAE5
:100BA0005BE3C701B6010E9449064B015C010E944C
:100BB000C1066B017C010E94F0069B01AC01C501DE
:100BC000B4010E9448064B015C014AE0C701B6012E
:100BD0000E94AF026EE283E391E00E942C0120E0CC
:100BE00030E040E251E4C501B4010E94A7074B0187
:100BF0005C010E94C1066B01F12CE12C4AE0C701A7
:100C0000B6010E94AF02C701B6010E94F0069B0127
:100C1000AC01C501B4010E94480620E030E040E28A
:100C200051E40E94A7070E94C10690E080E04AE0DC
:100C30000E94AF020DCFE3E3F1E01382128288EE4F
:100C400093E0A0E0B0E084839583A683B78384E03B
:100C500091E09183808385EC90E09587848784EC94
:100C600090E09787868780EC90E0918B808B81EC79
:100C700090E0938B828B82EC90E0958B848B86EC5A
:100C800090E0978B868B118E128E138E148E0895A2
:100C90005058BB27AA270E9460060C9468070E9440
:100CA0005A0738F00E94610720F039F49F3F19F489
:100CB00026F40C9457070EF4E095E7FB0C945107CB
:100CC000E92F0E94790758F3BA1762077307840760
:100CD000950720F079F4A6F50C949B070EF4E095A7
:100CE0000B2EBA2FA02D0B01B90190010C01CA01E6
:100CF000A0011124FF27591B99F0593F50F4503E91
:100D000068F11A16F040A22F232F342F4427585F82
:100D1000F3CF469537952795A795F0405395C9F79A
:100D20007EF41F16BA0B620B730B840BBAF0915052
:100D3000A1F0FF0FBB1F661F771F881FC2F70EC0F1
:100D4000BA0F621F731F841F48F4879577956795C4
:100D5000B795F7959E3F08F0B0CF9395880F08F0B0
:100D60009927EE0F9795879508950E942D0708F40F
:100D700081E008950E94C1066894B1110C949C070B
:100D800008950E94810788F09F5798F0B92F9927FE
:100D9000B751B0F0E1F0660F771F881F991F1AF066
:100DA000BA95C9F714C0B13091F00E949B07B1E029
:100DB00008950C949B07672F782F8827B85F39F028
:100DC000B93FCCF3869577956795B395D9F73EF4FF
:100DD00090958095709561957F4F8F4F9F4F0895A7
:100DE000E89409C097FB3EF49095809570956195C5
:100DF0007F4F8F4F9F4F9923A9F0F92F96E9BB277B
:100E00009395F695879577956795B795F111F8CFF6
:100E1000FAF4BB0F11F460FF1BC06F5F7F4F8F4F61
:100E20009F4F16C0882311F096E911C0772321F057
:100E30009EE8872F762F05C0662371F096E8862FEF
:100E400070E060E02AF09A95660F771F881FDAF746
:100E5000880F9695879597F90895990F0008550F73
:100E6000AA0BE0E8FEEF16161706E807F907C0F030
:100E700012161306E407F50798F0621B730B840B38
:100E8000950B39F40A2661F0232B242B252B21F412
:100E900008950A2609F4A140A6958FEF811D811DB2
:100EA000089597F99F6780E870E060E008959FEFEC
:100EB00080EC089500240A941616170618060906F1
:100EC000089500240A9412161306140605060895C0
:100ED000092E0394000C11F4882352F0BB0F40F448
:100EE000BF2B11F460FF04C06F5F7F4F8F4F9F4F88
:100EF000089557FD9058440F551F59F05F3F71F00A
:100F00004795880F97FB991F61F09F3F79F0879570
:100F10000895121613061406551FF2CF4695F1DFF9
:100F200008C0161617061806991FF1CF8695710589
:100F3000610508940895E894BB2766277727CB01BD
:100F400097F908950E942D0708F48FEF08950E94E5
:100F5000BA070C9468070E945A0738F00E9461078C
:100F600020F0952311F00C9451070C94570711248D
:100F70000C949C070E94790770F3959FC1F3950F1D
:100F800050E0551F629FF001729FBB27F00DB11D0D
:100F9000639FAA27F00DB11DAA1F649F6627B00D9D
:100FA000A11D661F829F2227B00DA11D621F739F86
:100FB000B00DA11D621F839FA00D611D221F749F94
:100FC0003327A00D611D231F849F600D211D822FDB
:100FD000762F6A2F11249F5750409AF0F1F0882302
:100FE0004AF0EE0FFF1FBB1F661F771F881F91502F
:100FF0005040A9F79E3F510580F00C9451070C9486
:101000009C075F3FE4F3983ED4F386957795679508
:10101000B795F795E7959F5FC1F7FE2B880F911D58
:101020009695879597F908950E942D07880B990B3F
:101030000895A1E21A2EAA1BBB1BFD010DC0AA1F19
:10104000BB1FEE1FFF1FA217B307E407F50720F031
:10105000A21BB30BE40BF50B661F771F881F991FAC
:101060001A9469F760957095809590959B01AC01F5
:10107000BD01CF010895EE0FFF1F0590F491E02D03
:061080000994F894FFCF73
:10108600000000002C018C00B9007901EA00C800BC
:10109600DC000D0A006E616E00696E66006F766692
:0210A600000048
:00000001FF
