:020000040000FA
:100000000C9436000C945E000C945E000C945E0020
:100010000C945E000C945E000C945E000C945E00E8
:100020000C945E000C945E000C945E000C945E00D8
:100030000C945E000C945E000C945E000C945E00C8
:100040000C942B020C945E000C949B020C94750291
:100050000C945E000C945E000C945E000C945E00A8
:100060000C945E000C945E00CD023B0411241FBE74
:10007000CFEFD8E0DEBFCDBF22E0AAE4B1E001C0FF
:100080001D92AC30B207E1F711E0A0E0B1E0EEE084
:10009000FDE002C005900D92AA34B107D9F710E037
:1000A000C5E3D0E004C02197FE010E948204C4335E
:1000B000D107C9F70E9411030C947A060C94000032
:1000C0000895AF92BF92CF92DF92EF92FF920F937B
:1000D0001F93CF93DF936C017B018B01040F151FDE
:1000E000EB015E01AE18BF08C017D10759F0699146
:1000F000D601ED91FC910190F081E02DC6010995AA
:10010000892B79F7C501DF91CF911F910F91FF9056
:10011000EF90DF90CF90BF90AF90089542E050E015
:1001200068E171E083E591E00C946100FC01448199
:1001300055816081718183E591E00C946100FC013F
:10014000538D448D252F30E0842F90E0821B930B3C
:10015000541710F0CF96089501970895FC01918DE2
:10016000828D981761F0A28DAE0FBF2FB11D5D96E5
:100170008C91928D9F5F9F73928F90E008958FEF87
:100180009FEF08952FB7F89480914F0190915001FF
:10019000A0915101B09152012FBF80935B019093C8
:1001A0005C01A0935D01B0935E0183E591E00E9444
:1001B000AE0097FF26C02FB7F89480914F01909121
:1001C0005001A0915101B09152012FBF40915B01AC
:1001D00050915C0160915D0170915E01841B950BF3
:1001E000A60BB70B409157015091580160915901EE
:1001F00070915A0184179507A607B707B0F28FEFE1
:100200009FEF0895FC01918D828D981731F0828DBA
:10021000E80FF11D858D90E008958FEF9FEF089511
:10022000FC01918D228D892F90E0805C9F4F821B75
:1002300091098F739927089583E591E00E94100139
:1002400021E0892B09F420E0822F089580E090E0DE
:10025000892B29F00E941C0181110C940000089543
:10026000FC01A48DA80FB92FB11DA35ABF4F2C912B
:10027000848D90E001968F739927848FA689B78922
:100280002C93A089B1898C91837080648C93938D19
:10029000848D981306C00288F389E02D80818F7DBC
:1002A00080830895EF92FF920F931F93CF93DF9374
:1002B000EC0181E0888F9B8D8C8D98131AC0E889A2
:1002C000F989808185FF15C09FB7F894EE89FF8971
:1002D0006083E889F98980818370806480839FBF0F
:1002E00081E090E0DF91CF911F910F91FF90EF900F
:1002F0000895F62E0B8D10E00F5F1F4F0F7311271F
:10030000E02E8C8D8E110CC00FB607FCFACFE88959
:10031000F989808185FFF5CFCE010E943001F1CFB0
:10032000EB8DEC0FFD2FF11DE35AFF4FF0829FB7CD
:10033000F8940B8FEA89FB8980818062CFCFCF93BD
:10034000DF93EC01888D8823B9F0AA89BB89E889FD
:10035000F9898C9185FD03C0808186FD0DC00FB6A3
:1003600007FCF7CF8C9185FFF2CF808185FFEDCF21
:10037000CE010E943001E9CFDF91CF910895FC01B9
:1003800080819181009711F00C94240508950F93BA
:100390001F93CF93DF93EC0188819981009759F0E7
:1003A0002A813B812617370730F081E0DF91CF911A
:1003B0001F910F9108958B016F5F7F4F0E94AD05D4
:1003C000009759F0998388831B830A832C813D8190
:1003D000232B59F7FC011082E8CF80E0E7CFEF92A2
:1003E000FF920F931F93CF93DF93EC017B01198250
:1003F00018821B821A821D821C82FB010190002040
:10040000E9F731978F01061B170BB8010E94C7014E
:1004100028813981811113C02115310519F0C901D5
:100420000E942405198218821D821C821B821A8256
:10043000DF91CF911F910F91FF90EF9008951D8351
:100440000C83B701C901DF91CF911F910F91FF90EC
:10045000EF900C9473061F920F920FB60F92112417
:100460002F933F938F939F93AF93BF9380914F01AF
:1004700090915001A0915101B091520130914E01E3
:1004800023E0230F2D3758F50196A11DB11D2093B0
:100490004E0180934F0190935001A0935101B0936E
:1004A000520180914A0190914B01A0914C01B09171
:1004B0004D010196A11DB11D80934A0190934B01FE
:1004C000A0934C01B0934D01BF91AF919F918F913B
:1004D0003F912F910F900FBE0F901F90189526E817
:1004E000230F0296A11DB11DD2CF1F920F920FB6FE
:1004F0000F9211242F933F934F935F936F937F93AA
:100500008F939F93AF93BF93EF93FF9383E591E016
:100510000E943001FF91EF91BF91AF919F918F9118
:100520007F916F915F914F913F912F910F900FBEEF
:100530000F901F9018951F920F920FB60F921124D3
:100540002F938F939F93EF93FF93E0916301F0912B
:1005500064018081E0916901F0916A0182FD1BC014
:10056000908180916C018F5F8F7320916D01821754
:1005700041F0E0916C01F0E0ED5AFE4F958F8093D1
:100580006C01FF91EF919F918F912F910F900FBE72
:100590000F901F9018958081F4CFE3E5F1E013826E
:1005A000128288EE93E0A0E0B0E084839583A68376
:1005B000B7838AE091E09183808385EC90E0958712
:1005C000848784EC90E09787868780EC90E0918B1D
:1005D000808B81EC90E0938B828B82EC90E0958B0A
:1005E000848B86EC90E0978B868B118E128E138E07
:1005F000148E6AE171E082E092E00E94EF016BE10B
:1006000071E08CEF91E00E94EF016EE271E086EF05
:1006100091E00E94EF0165E371E080EF91E00C94BE
:10062000EF01CF93DF93CDB7DEB728970FB6F894DD
:10063000DEBF0FBECDBF789484B5826084BD84B523
:10064000816084BD85B5826085BD85B5816085BDCD
:1006500080916E00816080936E0010928100809185
:10066000810082608093810080918100816080930D
:100670008100809180008160809380008091B10032
:1006800084608093B1008091B00081608093B0005D
:1006900080917A00846080937A0080917A008260F1
:1006A00080937A0080917A00816080937A008091B3
:1006B0007A00806880937A001092C100E091630113
:1006C000F091640182E08083E0915F01F09160012C
:1006D0001082E0916101F09162018FEC80831092B1
:1006E0006B01E0916701F091680186E08083E09101
:1006F0006501F0916601808180618083E0916501F0
:10070000F0916601808188608083E0916501F091BD
:100710006601808180688083E0916501F0916601C7
:1007200080818F7D808380E0E82E80E0F82E8CEF42
:1007300091E00E9496000E948E0083E591E00E9465
:100740001001892BD1F31A8219821C821B821E820E
:100750001D8270E060E0CE0101960E94C7012981F0
:100760003A8181112BC02115310519F0C9010E9470
:1007700024051A8219821E821D821C821B820E94FD
:10078000C20097FD23C08F8318860D811E810F5FE5
:100790001F4FB801CE0101960E94C701882379F34B
:1007A00029813A818D819E81BE01695F7F4F820FD1
:1007B000931F0E9473061E830D83E1CF1E821D824C
:1007C0006AE171E0C9010E947306D9CF80910202EB
:1007D000909103020097C1F169817A8161157105D9
:1007E00089F140910402509105022D813E8142170A
:1007F000530740F10E9473068D819E8190930702FA
:10080000809306021E821D82CE0101960E94BF01C6
:1008100086EF91E00E94960082E092E00E949600AE
:1008200080EF91E00E9496000E948E00E114F10496
:1008300009F47DCF0E941C01882309F478CF0E941F
:10084000000075CF0E94240589819A81909303024C
:10085000809302028B819C81909305028093040215
:100860008D819E8190930702809306021A821982DD
:100870001C821B82C7CF80EF91E00E94BF0186EFF0
:1008800091E00E94BF018CEF91E00E94BF0182E0E5
:1008900092E00C94BF012F923F924F925F926F9221
:1008A0007F928F929F92AF92BF92CF92DF92EF9200
:1008B000FF920F931F93CF93DF93CDB7DEB7CA1B81
:1008C000DB0B0FB6F894DEBF0FBECDBF09942A88AC
:1008D000398848885F846E847D848C849B84AA8454
:1008E000B984C884DF80EE80FD800C811B81AA81E1
:1008F000B981CE0FD11D0FB6F894DEBF0FBECDBFAC
:10090000ED010895EE0FFF1F0590F491E02D09947D
:100910000F931F93CF93DF938230910510F482E001
:1009200090E0E0910A02F0910B0230E020E0B0E0AC
:10093000A0E0309799F42115310509F44AC0281B2D
:10094000390B24303105D8F58A819B8161157105F9
:1009500089F1FB0193838283FE0111C040815181A3
:100960000281138148175907E0F04817590799F495
:10097000109761F012960C93129713961C9332966F
:10098000CF01DF91CF911F910F91089500930A023B
:1009900010930B02F4CF2115310551F04217530784
:1009A00038F0A901DB019A01BD01DF01F801C1CFD7
:1009B000EF01F9CF90930B0280930A02CDCFFE0195
:1009C000E20FF31F819391932250310939832883D9
:1009D000D7CF2091080230910902232B41F42091B6
:1009E0000201309103013093090220930802209103
:1009F0000001309101012115310541F42DB73EB7B9
:100A00004091040150910501241B350BE09108022F
:100A1000F0910902E217F307A0F42E1B3F0B2817F1
:100A2000390778F0AC014E5F5F4F2417350748F067
:100A30004E0F5F1F509309024093080281939193D8
:100A40009FCFF0E0E0E09CCFCF93DF930097E9F0F9
:100A5000FC01329713821282A0910A02B0910B021C
:100A6000ED0130E020E01097A1F420813181820F68
:100A7000931F20910802309109022817390709F0C5
:100A800061C0F0930902E0930802DF91CF910895CD
:100A9000EA01CE17DF07E8F54A815B819E01411527
:100AA0005105B1F7E901FB83EA8349915991C40FDC
:100AB000D51FEC17FD0761F4808191810296840FA8
:100AC000951FE90199838883828193819B838A831F
:100AD000F0E0E0E012968D919C9113970097B9F5A4
:100AE0002D913C911197CD010296820F931F209179
:100AF0000802309109022817390739F6309751F565
:100B000010920B0210920A02B0930902A0930802FD
:100B1000BCCFD383C28340815181840F951FC817F6
:100B2000D90761F44E5F5F4F88819981480F591F43
:100B3000518340838A819B81938382832115310570
:100B400009F0B0CFF0930B02E0930A029ECFFD01B3
:100B5000DC01C0CF13821282D7CFB0E0A0E0E3EB7C
:100B6000F5E00C944D048C01009751F4CB010E94E8
:100B700088048C01C801CDB7DEB7E0E10C946904AC
:100B8000FC01E60FF71F9C0122503109E217F30721
:100B900008F49DC0D901CD91DC911197C617D707F4
:100BA00098F0C530D10530F3CE010497861797072A
:100BB00008F3C61BD70B2297C193D1936D937C93F7
:100BC000CF010E942405D6CF5B01AC1ABD0A4C01AF
:100BD0008C0E9D1EA0910A02B0910B02512C412C4B
:100BE000F12CE12C109731F58091080290910902C7
:100BF0008815990509F05CC04616570608F058C0DC
:100C00008091000190910101009741F48DB79EB74A
:100C10004091040150910501841B950BE817F907D9
:100C200008F055C0F0930902E0930802F9017183BE
:100C30006083A0CF8D919C91119712966C90129722
:100C400013967C901397A815B90559F56C0142E0ED
:100C5000C40ED11CCA14DB0420F1AC014A195B0993
:100C6000DA011296159780F0628273825183408375
:100C7000D9016D937C93E114F10471F0D7011396BF
:100C8000FC93EE93129776CF22968C0F9D1FF9015D
:100C900091838083F301EFCFF0930B02E0930A027C
:100CA00069CF4816590608F42C017D01D3019ACF6B
:100CB000CB010E9488047C01009749F0AE01B80185
:100CC0000E946A06C8010E942405870153CF10E0E4
:100CD00000E050CFFB01DC0102C001900D924150B9
:100CE0005040D8F70895FB01DC0101900D920020DF
:100CF000E1F7089510E0C5E3D0E004C0FE010E94D2
:100D000082042196C633D107C9F7F894FFCF0000BB
:100D10000C02800000000000520161009F009F0152
:100D20001001AE0002010D0A00576861742049737A
:100D300020596F7572204E616D653F0048656C6C7F
:100D40006F200057656C636F6D6520546F20417292
:080D50006475696E6F2100005B
:107E0000112484B714BE81FFF0D085E080938100F7
:107E100082E08093C00088E18093C10086E0809377
:107E2000C20080E18093C4008EE0C9D0259A86E02C
:107E300020E33CEF91E0309385002093840096BBD3
:107E4000B09BFECF1D9AA8958150A9F7CC24DD24C4
:107E500088248394B5E0AB2EA1E19A2EF3E0BF2EE7
:107E6000A2D0813461F49FD0082FAFD0023811F036
:107E7000013811F484E001C083E08DD089C08234E0
:107E800011F484E103C0853419F485E0A6D080C0E4
:107E9000853579F488D0E82EFF2485D0082F10E0AE
:107EA000102F00270E291F29000F111F8ED06801E7
:107EB0006FC0863521F484E090D080E0DECF843638
:107EC00009F040C070D06FD0082F6DD080E0C81688
:107ED00080E7D80618F4F601B7BEE895C0E0D1E017
:107EE00062D089930C17E1F7F0E0CF16F0E7DF06D8
:107EF00018F0F601B7BEE89568D007B600FCFDCFD4
:107F0000A601A0E0B1E02C9130E011968C91119780
:107F100090E0982F8827822B932B1296FA010C0160
:107F200087BEE89511244E5F5F4FF1E0A038BF0790
:107F300051F7F601A7BEE89507B600FCFDCF97BE46
:107F4000E89526C08437B1F42ED02DD0F82E2BD052
:107F50003CD0F601EF2C8F010F5F1F4F84911BD097
:107F6000EA94F801C1F70894C11CD11CFA94CF0C13
:107F7000D11C0EC0853739F428D08EE10CD085E9AC
:107F80000AD08FE07ACF813511F488E018D01DD067
:107F900080E101D065CF982F8091C00085FFFCCF94
:107FA0009093C60008958091C00087FFFCCF809118
:107FB000C00084FD01C0A8958091C6000895E0E648
:107FC000F0E098E1908380830895EDDF803219F02E
:107FD00088E0F5DFFFCF84E1DECF1F93182FE3DFCA
:107FE0001150E9F7F2DF1F91089580E0E8DFEE27F6
:047FF000FF270994CA
:027FFE00040479
:00000001FF
