:100000000C945C000C946E000C946E000C946E00CA
:100010000C946E000C946E000C946E000C946E00A8
:100020000C946E000C946E000C946E000C946E0098
:100030000C946E000C946E000C946E000C946E0088
:100040000C9414010C946E000C946E000C946E00D1
:100050000C946E000C946E000C946E000C946E0068
:100060000C946E000C946E00000000080002010069
:100070000003040700000000000000000000000072
:10008000250028002B0000000000240027002A0083
:10009000040404040404040402020202020203032E
:1000A0000303030301020408102040800102040836
:1000B000102001020408102011241FBECFEFD8E049
:1000C000DEBFCDBF21E0A0E0B1E001C01D92AD30A8
:1000D000B207E1F70E945E010C9449030C94000002
:1000E00090E0FC01E859FF4F2491FC01EC55FF4FD3
:1000F0003491FC01E057FF4FE491EE23C9F0222335
:1001000039F0233001F1A8F4213019F1223029F11E
:10011000F0E0EE0FFF1FE458FF4FA591B4918FB7A9
:10012000F894EC91611126C030953E233C938FBF2B
:1001300008952730A9F02830C9F0243049F780917C
:1001400080008F7D03C0809180008F778093800036
:10015000DFCF84B58F7784BDDBCF84B58F7DFBCFB8
:100160008091B0008F778093B000D2CF8091B000A3
:100170008F7DF9CF3E2BDACF3FB7F8948091050100
:1001800090910601A0910701B091080126B5A89BA6
:1001900005C02F3F19F00196A11DB11D3FBFBA2F19
:1001A000A92F982F8827BC01CD01620F711D811DD9
:1001B000911D42E0660F771F881F991F4A95D1F75E
:1001C00008958F929F92AF92BF92CF92DF92EF925B
:1001D000FF926B017C010E94BC004B015C01C114C9
:1001E000D104E104F104B9F00E94BC006819790956
:1001F0008A099B09683E73408105910580F321E0DF
:10020000C21AD108E108F10888EE880E83E0981E32
:10021000A11CB11CE4CFFF90EF90DF90CF90BF9076
:10022000AF909F908F9008951F920F920FB60F92EC
:1002300011242F933F938F939F93AF93BF938091FC
:10024000010190910201A0910301B091040130914C
:10025000000123E0230F2D3758F50196A11DB11D94
:10026000209300018093010190930201A093030168
:10027000B09304018091050190910601A0910701BE
:10028000B09108010196A11DB11D809305019093C5
:100290000601A0930701B0930801BF91AF919F9110
:1002A0008F913F912F910F900FBE0F901F90189537
:1002B00026E8230F0296A11DB11DD2CF789484B5F4
:1002C000826084BD84B5816084BD85B5826085BD52
:1002D00085B5816085BD80916E00816080936E00E0
:1002E00010928100809181008260809381008091D2
:1002F0008100816080938100809180008160809383
:1003000080008091B10084608093B1008091B00042
:1003100081608093B00080917A00846080937A003D
:1003200080917A00826080937A0080917A00816067
:1003300080937A0080917A00806880937A0010928E
:10034000C100ECEAF0E02491E8E9F0E08491882330
:1003500099F090E0880F991FFC01EA57FF4FA59193
:10036000B491FC01E458FF4F859194918FB7F894B4
:10037000EC91E22BEC938FBFE2EBF0E02491EEE9FD
:10038000F0E084918823C1F090E0880F991FFC0170
:10039000EA57FF4FC591D491FC01E458FF4FA59156
:1003A000B4919FB7F8948881E22FE0958E238883DB
:1003B0008C91E823EC939FBF10E4C0E0D0E0109351
:1003C0007C0080917A00806480937A0080917A002A
:1003D00086FDFCCF8091780060917900762F682FA0
:1003E000072E000C880B990B0E9450022EED36E769
:1003F0004BE151E40E94B4026B017C01C0920901FF
:10040000D0920A01E0920B01F0920C0161E088E0C9
:100410000E947000C701B6010E941F026B017C019F
:100420000E94E10060E088E00E947000C701B60110
:100430000E94E100209719F20E940000C0CF0E94A4
:10044000930288F09F5798F0B92F9927B751B0F0D1
:10045000E1F0660F771F881F991F1AF0BA95C9F748
:1004600014C0B13091F00E94AD02B1E008950C9437
:10047000AD02672F782F8827B85F39F0B93FCCF3EA
:10048000869577956795B395D9F73EF490958095C5
:10049000709561957F4F8F4F9F4F0895E89409C0E5
:1004A00097FB3EF490958095709561957F4F8F4FA7
:1004B0009F4F9923A9F0F92F96E9BB279395F695BD
:1004C000879577956795B795F111F8CFFAF4BB0F3B
:1004D00011F460FF1BC06F5F7F4F8F4F9F4F16C09F
:1004E000882311F096E911C0772321F09EE8872F29
:1004F000762F05C0662371F096E8862F70E060E0E5
:100500002AF09A95660F771F881FDAF7880F96955D
:10051000879597F9089557FD9058440F551F59F046
:100520005F3F71F04795880F97FB991F61F09F3FE0
:1005300079F087950895121613061406551FF2CF09
:100540004695F1DF08C0161617061806991FF1CF59
:1005500086957105610508940895E894BB27662780
:100560007727CB0197F908950E94C7020C943803AE
:100570000E942A0338F00E94310320F0952311F0E5
:100580000C9421030C94270311240C94AE020E94B6
:100590008B0270F3959FC1F3950F50E0551F629F3A
:1005A000F001729FBB27F00DB11D639FAA27F00DCC
:1005B000B11DAA1F649F6627B00DA11D661F829FF3
:1005C0002227B00DA11D621F739FB00DA11D621FD8
:1005D000839FA00D611D221F749F3327A00D611DF5
:1005E000231F849F600D211D822F762F6A2F1124D7
:1005F0009F5750409AF0F1F088234AF0EE0FFF1F0A
:10060000BB1F661F771F881F91505040A9F79E3F60
:10061000510580F00C9421030C94AE025F3FE4F38B
:10062000983ED4F3869577956795B795F795E795B6
:100630009F5FC1F7FE2B880F911D9695879597F9BF
:10064000089597F99F6780E870E060E008959FEF54
:1006500080EC089500240A94161617061806090659
:10066000089500240A941216130614060506089528
:10067000092E0394000C11F4882352F0BB0F40F4B0
:10068000BF2B11F460FF04C06F5F7F4F8F4F9F4FF0
:060690000895F894FFCF6D
:00000001FF
